{
  "_format": "hh-sol-artifact-1",
  "contractName": "NFT",
  "sourceName": "src/backend/contracts/NFT.sol",
  "abi": [
    {
      "inputs": [],
      "stateMutability": "nonpayable",
      "type": "constructor"
    },
    {
      "inputs": [],
      "name": "ApprovalCallerNotOwnerNorApproved",
      "type": "error"
    },
    {
      "inputs": [],
      "name": "ApprovalQueryForNonexistentToken",
      "type": "error"
    },
    {
      "inputs": [],
      "name": "BalanceQueryForZeroAddress",
      "type": "error"
    },
    {
      "inputs": [],
      "name": "MintERC2309QuantityExceedsLimit",
      "type": "error"
    },
    {
      "inputs": [],
      "name": "MintToZeroAddress",
      "type": "error"
    },
    {
      "inputs": [],
      "name": "MintZeroQuantity",
      "type": "error"
    },
    {
      "inputs": [],
      "name": "OwnerQueryForNonexistentToken",
      "type": "error"
    },
    {
      "inputs": [],
      "name": "OwnershipNotInitializedForExtraData",
      "type": "error"
    },
    {
      "inputs": [],
      "name": "TransferCallerNotOwnerNorApproved",
      "type": "error"
    },
    {
      "inputs": [],
      "name": "TransferFromIncorrectOwner",
      "type": "error"
    },
    {
      "inputs": [],
      "name": "TransferToNonERC721ReceiverImplementer",
      "type": "error"
    },
    {
      "inputs": [],
      "name": "TransferToZeroAddress",
      "type": "error"
    },
    {
      "inputs": [],
      "name": "URIQueryForNonexistentToken",
      "type": "error"
    },
    {
      "anonymous": false,
      "inputs": [
        {
          "indexed": true,
          "internalType": "address",
          "name": "owner",
          "type": "address"
        },
        {
          "indexed": true,
          "internalType": "address",
          "name": "approved",
          "type": "address"
        },
        {
          "indexed": true,
          "internalType": "uint256",
          "name": "tokenId",
          "type": "uint256"
        }
      ],
      "name": "Approval",
      "type": "event"
    },
    {
      "anonymous": false,
      "inputs": [
        {
          "indexed": true,
          "internalType": "address",
          "name": "owner",
          "type": "address"
        },
        {
          "indexed": true,
          "internalType": "address",
          "name": "operator",
          "type": "address"
        },
        {
          "indexed": false,
          "internalType": "bool",
          "name": "approved",
          "type": "bool"
        }
      ],
      "name": "ApprovalForAll",
      "type": "event"
    },
    {
      "anonymous": false,
      "inputs": [
        {
          "indexed": true,
          "internalType": "uint256",
          "name": "fromTokenId",
          "type": "uint256"
        },
        {
          "indexed": false,
          "internalType": "uint256",
          "name": "toTokenId",
          "type": "uint256"
        },
        {
          "indexed": true,
          "internalType": "address",
          "name": "from",
          "type": "address"
        },
        {
          "indexed": true,
          "internalType": "address",
          "name": "to",
          "type": "address"
        }
      ],
      "name": "ConsecutiveTransfer",
      "type": "event"
    },
    {
      "anonymous": false,
      "inputs": [
        {
          "indexed": false,
          "internalType": "address",
          "name": "user",
          "type": "address"
        }
      ],
      "name": "MintSuccessful",
      "type": "event"
    },
    {
      "anonymous": false,
      "inputs": [
        {
          "indexed": true,
          "internalType": "address",
          "name": "previousOwner",
          "type": "address"
        },
        {
          "indexed": true,
          "internalType": "address",
          "name": "newOwner",
          "type": "address"
        }
      ],
      "name": "OwnershipTransferred",
      "type": "event"
    },
    {
      "anonymous": false,
      "inputs": [
        {
          "indexed": true,
          "internalType": "address",
          "name": "from",
          "type": "address"
        },
        {
          "indexed": true,
          "internalType": "address",
          "name": "to",
          "type": "address"
        },
        {
          "indexed": true,
          "internalType": "uint256",
          "name": "tokenId",
          "type": "uint256"
        }
      ],
      "name": "Transfer",
      "type": "event"
    },
    {
      "inputs": [],
      "name": "amountMintPerAccount",
      "outputs": [
        {
          "internalType": "uint256",
          "name": "",
          "type": "uint256"
        }
      ],
      "stateMutability": "view",
      "type": "function"
    },
    {
      "inputs": [
        {
          "internalType": "address",
          "name": "to",
          "type": "address"
        },
        {
          "internalType": "uint256",
          "name": "tokenId",
          "type": "uint256"
        }
      ],
      "name": "approve",
      "outputs": [],
      "stateMutability": "payable",
      "type": "function"
    },
    {
      "inputs": [
        {
          "internalType": "address",
          "name": "owner",
          "type": "address"
        }
      ],
      "name": "balanceOf",
      "outputs": [
        {
          "internalType": "uint256",
          "name": "",
          "type": "uint256"
        }
      ],
      "stateMutability": "view",
      "type": "function"
    },
    {
      "inputs": [],
      "name": "baseTokenURI",
      "outputs": [
        {
          "internalType": "string",
          "name": "",
          "type": "string"
        }
      ],
      "stateMutability": "pure",
      "type": "function"
    },
    {
      "inputs": [],
      "name": "contractURI",
      "outputs": [
        {
          "internalType": "string",
          "name": "",
          "type": "string"
        }
      ],
      "stateMutability": "pure",
      "type": "function"
    },
    {
      "inputs": [
        {
          "internalType": "uint256",
          "name": "tokenId",
          "type": "uint256"
        }
      ],
      "name": "getApproved",
      "outputs": [
        {
          "internalType": "address",
          "name": "",
          "type": "address"
        }
      ],
      "stateMutability": "view",
      "type": "function"
    },
    {
      "inputs": [],
      "name": "getPrice",
      "outputs": [
        {
          "internalType": "uint256",
          "name": "",
          "type": "uint256"
        }
      ],
      "stateMutability": "view",
      "type": "function"
    },
    {
      "inputs": [
        {
          "internalType": "address",
          "name": "owner",
          "type": "address"
        },
        {
          "internalType": "address",
          "name": "operator",
          "type": "address"
        }
      ],
      "name": "isApprovedForAll",
      "outputs": [
        {
          "internalType": "bool",
          "name": "",
          "type": "bool"
        }
      ],
      "stateMutability": "view",
      "type": "function"
    },
    {
      "inputs": [],
      "name": "max_supply",
      "outputs": [
        {
          "internalType": "uint256",
          "name": "",
          "type": "uint256"
        }
      ],
      "stateMutability": "view",
      "type": "function"
    },
    {
      "inputs": [
        {
          "internalType": "uint256",
          "name": "_quantity",
          "type": "uint256"
        }
      ],
      "name": "mint",
      "outputs": [],
      "stateMutability": "payable",
      "type": "function"
    },
    {
      "inputs": [],
      "name": "name",
      "outputs": [
        {
          "internalType": "string",
          "name": "",
          "type": "string"
        }
      ],
      "stateMutability": "view",
      "type": "function"
    },
    {
      "inputs": [],
      "name": "owner",
      "outputs": [
        {
          "internalType": "address",
          "name": "",
          "type": "address"
        }
      ],
      "stateMutability": "view",
      "type": "function"
    },
    {
      "inputs": [
        {
          "internalType": "uint256",
          "name": "tokenId",
          "type": "uint256"
        }
      ],
      "name": "ownerOf",
      "outputs": [
        {
          "internalType": "address",
          "name": "",
          "type": "address"
        }
      ],
      "stateMutability": "view",
      "type": "function"
    },
    {
      "inputs": [],
      "name": "renounceOwnership",
      "outputs": [],
      "stateMutability": "nonpayable",
      "type": "function"
    },
    {
      "inputs": [
        {
          "internalType": "address",
          "name": "from",
          "type": "address"
        },
        {
          "internalType": "address",
          "name": "to",
          "type": "address"
        },
        {
          "internalType": "uint256",
          "name": "tokenId",
          "type": "uint256"
        }
      ],
      "name": "safeTransferFrom",
      "outputs": [],
      "stateMutability": "payable",
      "type": "function"
    },
    {
      "inputs": [
        {
          "internalType": "address",
          "name": "from",
          "type": "address"
        },
        {
          "internalType": "address",
          "name": "to",
          "type": "address"
        },
        {
          "internalType": "uint256",
          "name": "tokenId",
          "type": "uint256"
        },
        {
          "internalType": "bytes",
          "name": "_data",
          "type": "bytes"
        }
      ],
      "name": "safeTransferFrom",
      "outputs": [],
      "stateMutability": "payable",
      "type": "function"
    },
    {
      "inputs": [
        {
          "internalType": "uint256",
          "name": "_amountMintPerAccount",
          "type": "uint256"
        }
      ],
      "name": "setAmountMintPerAccount",
      "outputs": [],
      "stateMutability": "nonpayable",
      "type": "function"
    },
    {
      "inputs": [
        {
          "internalType": "address",
          "name": "operator",
          "type": "address"
        },
        {
          "internalType": "bool",
          "name": "approved",
          "type": "bool"
        }
      ],
      "name": "setApprovalForAll",
      "outputs": [],
      "stateMutability": "nonpayable",
      "type": "function"
    },
    {
      "inputs": [
        {
          "internalType": "bytes4",
          "name": "interfaceId",
          "type": "bytes4"
        }
      ],
      "name": "supportsInterface",
      "outputs": [
        {
          "internalType": "bool",
          "name": "",
          "type": "bool"
        }
      ],
      "stateMutability": "view",
      "type": "function"
    },
    {
      "inputs": [],
      "name": "symbol",
      "outputs": [
        {
          "internalType": "string",
          "name": "",
          "type": "string"
        }
      ],
      "stateMutability": "view",
      "type": "function"
    },
    {
      "inputs": [
        {
          "internalType": "uint256",
          "name": "_tokenId",
          "type": "uint256"
        }
      ],
      "name": "tokenURI",
      "outputs": [
        {
          "internalType": "string",
          "name": "",
          "type": "string"
        }
      ],
      "stateMutability": "view",
      "type": "function"
    },
    {
      "inputs": [],
      "name": "totalSupply",
      "outputs": [
        {
          "internalType": "uint256",
          "name": "",
          "type": "uint256"
        }
      ],
      "stateMutability": "view",
      "type": "function"
    },
    {
      "inputs": [
        {
          "internalType": "address",
          "name": "from",
          "type": "address"
        },
        {
          "internalType": "address",
          "name": "to",
          "type": "address"
        },
        {
          "internalType": "uint256",
          "name": "tokenId",
          "type": "uint256"
        }
      ],
      "name": "transferFrom",
      "outputs": [],
      "stateMutability": "payable",
      "type": "function"
    },
    {
      "inputs": [
        {
          "internalType": "address",
          "name": "newOwner",
          "type": "address"
        }
      ],
      "name": "transferOwnership",
      "outputs": [],
      "stateMutability": "nonpayable",
      "type": "function"
    },
    {
      "inputs": [],
      "name": "uriPrefix",
      "outputs": [
        {
          "internalType": "string",
          "name": "",
          "type": "string"
        }
      ],
      "stateMutability": "view",
      "type": "function"
    },
    {
      "inputs": [],
      "name": "uriSuffix",
      "outputs": [
        {
          "internalType": "string",
          "name": "",
          "type": "string"
        }
      ],
      "stateMutability": "view",
      "type": "function"
    }
  ],
  "bytecode": "0x608060405260405180602001604052806000815250600990805190602001906200002b92919062000242565b506040518060400160405280600581526020017f2e6a736f6e000000000000000000000000000000000000000000000000000000815250600a90805190602001906200007992919062000242565b50612710600b55600a600c553480156200009257600080fd5b506040518060400160405280600d81526020017f465245414b5920524142424954000000000000000000000000000000000000008152506040518060400160405280600281526020017f465200000000000000000000000000000000000000000000000000000000000081525081600290805190602001906200011792919062000242565b5080600390805190602001906200013092919062000242565b50620001416200016f60201b60201c565b6000819055505050620001696200015d6200017460201b60201c565b6200017c60201b60201c565b62000357565b600090565b600033905090565b6000600860009054906101000a900473ffffffffffffffffffffffffffffffffffffffff16905081600860006101000a81548173ffffffffffffffffffffffffffffffffffffffff021916908373ffffffffffffffffffffffffffffffffffffffff1602179055508173ffffffffffffffffffffffffffffffffffffffff168173ffffffffffffffffffffffffffffffffffffffff167f8be0079c531659141344cd1fd0a4f28419497f9722a3daafe3b4186f6b6457e060405160405180910390a35050565b8280546200025090620002f2565b90600052602060002090601f016020900481019282620002745760008555620002c0565b82601f106200028f57805160ff1916838001178555620002c0565b82800160010185558215620002c0579182015b82811115620002bf578251825591602001919060010190620002a2565b5b509050620002cf9190620002d3565b5090565b5b80821115620002ee576000816000905550600101620002d4565b5090565b600060028204905060018216806200030b57607f821691505b6020821081141562000322576200032162000328565b5b50919050565b7f4e487b7100000000000000000000000000000000000000000000000000000000600052602260045260246000fd5b61298980620003676000396000f3fe6080604052600436106101815760003560e01c80638a333b50116100d1578063a827b5ff1161008a578063d547cfb711610064578063d547cfb71461052f578063e8a3d4851461055a578063e985e9c514610585578063f2fde38b146105c257610181565b8063a827b5ff146104ab578063b88d4fde146104d6578063c87b56dd146104f257610181565b80638a333b50146103ba5780638da5cb5b146103e557806395d89b411461041057806398d5fdca1461043b578063a0712d6814610466578063a22cb4651461048257610181565b806323b872dd1161013e57806362b99ad41161011857806362b99ad4146102fe5780636352211e1461032957806370a0823114610366578063715018a6146103a357610181565b806323b872dd1461029b57806342842e0e146102b75780635503a0e8146102d357610181565b806301ffc9a71461018657806306fdde03146101c3578063081812fc146101ee578063095ea7b31461022b578063112966601461024757806318160ddd14610270575b600080fd5b34801561019257600080fd5b506101ad60048036038101906101a89190611f54565b6105eb565b6040516101ba9190612265565b60405180910390f35b3480156101cf57600080fd5b506101d861067d565b6040516101e59190612280565b60405180910390f35b3480156101fa57600080fd5b5061021560048036038101906102109190611fa6565b61070f565b60405161022291906121fe565b60405180910390f35b61024560048036038101906102409190611f18565b61078e565b005b34801561025357600080fd5b5061026e60048036038101906102699190611fa6565b6108d2565b005b34801561027c57600080fd5b50610285610958565b6040516102929190612342565b60405180910390f35b6102b560048036038101906102b09190611e12565b61096f565b005b6102d160048036038101906102cc9190611e12565b610c94565b005b3480156102df57600080fd5b506102e8610cb4565b6040516102f59190612280565b60405180910390f35b34801561030a57600080fd5b50610313610d42565b6040516103209190612280565b60405180910390f35b34801561033557600080fd5b50610350600480360381019061034b9190611fa6565b610dd0565b60405161035d91906121fe565b60405180910390f35b34801561037257600080fd5b5061038d60048036038101906103889190611dad565b610de2565b60405161039a9190612342565b60405180910390f35b3480156103af57600080fd5b506103b8610e9b565b005b3480156103c657600080fd5b506103cf610f23565b6040516103dc9190612342565b60405180910390f35b3480156103f157600080fd5b506103fa610f29565b60405161040791906121fe565b60405180910390f35b34801561041c57600080fd5b50610425610f53565b6040516104329190612280565b60405180910390f35b34801561044757600080fd5b50610450610fe5565b60405161045d9190612342565b60405180910390f35b610480600480360381019061047b9190611fa6565b611038565b005b34801561048e57600080fd5b506104a960048036038101906104a49190611edc565b61111e565b005b3480156104b757600080fd5b506104c0611229565b6040516104cd9190612342565b60405180910390f35b6104f060048036038101906104eb9190611e61565b61122f565b005b3480156104fe57600080fd5b5061051960048036038101906105149190611fa6565b6112a2565b6040516105269190612280565b60405180910390f35b34801561053b57600080fd5b5061054461134c565b6040516105519190612280565b60405180910390f35b34801561056657600080fd5b5061056f61135b565b60405161057c9190612280565b60405180910390f35b34801561059157600080fd5b506105ac60048036038101906105a79190611dd6565b61137b565b6040516105b99190612265565b60405180910390f35b3480156105ce57600080fd5b506105e960048036038101906105e49190611dad565b61140f565b005b60006301ffc9a760e01b827bffffffffffffffffffffffffffffffffffffffffffffffffffffffff1916148061064657506380ac58cd60e01b827bffffffffffffffffffffffffffffffffffffffffffffffffffffffff1916145b806106765750635b5e139f60e01b827bffffffffffffffffffffffffffffffffffffffffffffffffffffffff1916145b9050919050565b60606002805461068c9061257c565b80601f01602080910402602001604051908101604052809291908181526020018280546106b89061257c565b80156107055780601f106106da57610100808354040283529160200191610705565b820191906000526020600020905b8154815290600101906020018083116106e857829003601f168201915b5050505050905090565b600061071a82611507565b610750576040517fcf4700e400000000000000000000000000000000000000000000000000000000815260040160405180910390fd5b6006600083815260200190815260200160002060000160009054906101000a900473ffffffffffffffffffffffffffffffffffffffff169050919050565b600061079982610dd0565b90508073ffffffffffffffffffffffffffffffffffffffff166107ba611566565b73ffffffffffffffffffffffffffffffffffffffff161461081d576107e6816107e1611566565b61137b565b61081c576040517fcfb3b94200000000000000000000000000000000000000000000000000000000815260040160405180910390fd5b5b826006600084815260200190815260200160002060000160006101000a81548173ffffffffffffffffffffffffffffffffffffffff021916908373ffffffffffffffffffffffffffffffffffffffff160217905550818373ffffffffffffffffffffffffffffffffffffffff168273ffffffffffffffffffffffffffffffffffffffff167f8c5be1e5ebec7d5bd14f71427d1e84f3dd0314c0f7b2291e5b200ac8c7c3b92560405160405180910390a4505050565b6108da61156e565b73ffffffffffffffffffffffffffffffffffffffff166108f8610f29565b73ffffffffffffffffffffffffffffffffffffffff161461094e576040517f08c379a0000000000000000000000000000000000000000000000000000000008152600401610945906122c2565b60405180910390fd5b80600c8190555050565b6000610962611576565b6001546000540303905090565b600061097a8261157b565b90508373ffffffffffffffffffffffffffffffffffffffff168173ffffffffffffffffffffffffffffffffffffffff16146109e1576040517fa114810000000000000000000000000000000000000000000000000000000000815260040160405180910390fd5b6000806109ed84611649565b91509150610a0381876109fe611566565b611670565b610a4f57610a1886610a13611566565b61137b565b610a4e576040517f59c896be00000000000000000000000000000000000000000000000000000000815260040160405180910390fd5b5b600073ffffffffffffffffffffffffffffffffffffffff168573ffffffffffffffffffffffffffffffffffffffff161415610ab6576040517fea553b3400000000000000000000000000000000000000000000000000000000815260040160405180910390fd5b610ac386868660016116b4565b8015610ace57600082555b600560008773ffffffffffffffffffffffffffffffffffffffff1673ffffffffffffffffffffffffffffffffffffffff168152602001908152602001600020600081546001900391905081905550600560008673ffffffffffffffffffffffffffffffffffffffff1673ffffffffffffffffffffffffffffffffffffffff1681526020019081526020016000206000815460010191905081905550610b9c85610b788888876116ba565b7c0200000000000000000000000000000000000000000000000000000000176116e2565b600460008681526020019081526020016000208190555060007c020000000000000000000000000000000000000000000000000000000084161415610c24576000600185019050600060046000838152602001908152602001600020541415610c22576000548114610c21578360046000838152602001908152602001600020819055505b5b505b838573ffffffffffffffffffffffffffffffffffffffff168773ffffffffffffffffffffffffffffffffffffffff167fddf252ad1be2c89b69c2b068fc378daa952ba7f163c4a11628f55a4df523b3ef60405160405180910390a4610c8c868686600161170d565b505050505050565b610caf8383836040518060200160405280600081525061122f565b505050565b600a8054610cc19061257c565b80601f0160208091040260200160405190810160405280929190818152602001828054610ced9061257c565b8015610d3a5780601f10610d0f57610100808354040283529160200191610d3a565b820191906000526020600020905b815481529060010190602001808311610d1d57829003601f168201915b505050505081565b60098054610d4f9061257c565b80601f0160208091040260200160405190810160405280929190818152602001828054610d7b9061257c565b8015610dc85780601f10610d9d57610100808354040283529160200191610dc8565b820191906000526020600020905b815481529060010190602001808311610dab57829003601f168201915b505050505081565b6000610ddb8261157b565b9050919050565b60008073ffffffffffffffffffffffffffffffffffffffff168273ffffffffffffffffffffffffffffffffffffffff161415610e4a576040517f8f4eb60400000000000000000000000000000000000000000000000000000000815260040160405180910390fd5b67ffffffffffffffff600560008473ffffffffffffffffffffffffffffffffffffffff1673ffffffffffffffffffffffffffffffffffffffff16815260200190815260200160002054169050919050565b610ea361156e565b73ffffffffffffffffffffffffffffffffffffffff16610ec1610f29565b73ffffffffffffffffffffffffffffffffffffffff1614610f17576040517f08c379a0000000000000000000000000000000000000000000000000000000008152600401610f0e906122c2565b60405180910390fd5b610f216000611713565b565b600b5481565b6000600860009054906101000a900473ffffffffffffffffffffffffffffffffffffffff16905090565b606060038054610f629061257c565b80601f0160208091040260200160405190810160405280929190818152602001828054610f8e9061257c565b8015610fdb5780601f10610fb057610100808354040283529160200191610fdb565b820191906000526020600020905b815481529060010190602001808311610fbe57829003601f168201915b5050505050905090565b6000610fef610f29565b73ffffffffffffffffffffffffffffffffffffffff163373ffffffffffffffffffffffffffffffffffffffff161461103057666a94d74f4300009050611035565b600090505b90565b611040610fe5565b341015611082576040517f08c379a000000000000000000000000000000000000000000000000000000000815260040161107990612322565b60405180910390fd5b600c548161108f33610de2565b611099919061240b565b11156110da576040517f08c379a00000000000000000000000000000000000000000000000000000000081526004016110d1906122e2565b60405180910390fd5b6110e433826117d9565b7ff5535ccd9f40eb4bc73fac8710dbb2effbf3329da83f62b35d9aa88161bb85ca3360405161111391906121fe565b60405180910390a150565b806007600061112b611566565b73ffffffffffffffffffffffffffffffffffffffff1673ffffffffffffffffffffffffffffffffffffffff16815260200190815260200160002060008473ffffffffffffffffffffffffffffffffffffffff1673ffffffffffffffffffffffffffffffffffffffff16815260200190815260200160002060006101000a81548160ff0219169083151502179055508173ffffffffffffffffffffffffffffffffffffffff166111d8611566565b73ffffffffffffffffffffffffffffffffffffffff167f17307eab39ab6107e8899845ad3d59bd9653f200f220920489ca2b5937696c318360405161121d9190612265565b60405180910390a35050565b600c5481565b61123a84848461096f565b60008373ffffffffffffffffffffffffffffffffffffffff163b1461129c5761126584848484611996565b61129b576040517fd1a57ed600000000000000000000000000000000000000000000000000000000815260040160405180910390fd5b5b50505050565b60606112ad82611507565b6112ec576040517f08c379a00000000000000000000000000000000000000000000000000000000081526004016112e390612302565b60405180910390fd5b60006112f6611af6565b905060008151116113165760405180602001604052806000815250611344565b8061132084611b16565b600a604051602001611334939291906121cd565b6040516020818303038152906040525b915050919050565b6060611356611af6565b905090565b606060405180606001604052806036815260200161291e60369139905090565b6000600760008473ffffffffffffffffffffffffffffffffffffffff1673ffffffffffffffffffffffffffffffffffffffff16815260200190815260200160002060008373ffffffffffffffffffffffffffffffffffffffff1673ffffffffffffffffffffffffffffffffffffffff16815260200190815260200160002060009054906101000a900460ff16905092915050565b61141761156e565b73ffffffffffffffffffffffffffffffffffffffff16611435610f29565b73ffffffffffffffffffffffffffffffffffffffff161461148b576040517f08c379a0000000000000000000000000000000000000000000000000000000008152600401611482906122c2565b60405180910390fd5b600073ffffffffffffffffffffffffffffffffffffffff168173ffffffffffffffffffffffffffffffffffffffff1614156114fb576040517f08c379a00000000000000000000000000000000000000000000000000000000081526004016114f2906122a2565b60405180910390fd5b61150481611713565b50565b600081611512611576565b11158015611521575060005482105b801561155f575060007c0100000000000000000000000000000000000000000000000000000000600460008581526020019081526020016000205416145b9050919050565b600033905090565b600033905090565b600090565b6000808290508061158a611576565b11611612576000548110156116115760006004600083815260200190815260200160002054905060007c01000000000000000000000000000000000000000000000000000000008216141561160f575b60008114156116055760046000836001900393508381526020019081526020016000205490506115da565b8092505050611644565b505b5b6040517fdf2d9b4200000000000000000000000000000000000000000000000000000000815260040160405180910390fd5b919050565b60008060006006600085815260200190815260200160002090508092508254915050915091565b600073ffffffffffffffffffffffffffffffffffffffff8316925073ffffffffffffffffffffffffffffffffffffffff821691508382148383141790509392505050565b50505050565b60008060e883901c905060e86116d1868684611cc3565b62ffffff16901b9150509392505050565b600073ffffffffffffffffffffffffffffffffffffffff83169250814260a01b178317905092915050565b50505050565b6000600860009054906101000a900473ffffffffffffffffffffffffffffffffffffffff16905081600860006101000a81548173ffffffffffffffffffffffffffffffffffffffff021916908373ffffffffffffffffffffffffffffffffffffffff1602179055508173ffffffffffffffffffffffffffffffffffffffff168173ffffffffffffffffffffffffffffffffffffffff167f8be0079c531659141344cd1fd0a4f28419497f9722a3daafe3b4186f6b6457e060405160405180910390a35050565b600080549050600082141561181a576040517fb562e8dd00000000000000000000000000000000000000000000000000000000815260040160405180910390fd5b61182760008483856116b4565b600160406001901b178202600560008573ffffffffffffffffffffffffffffffffffffffff1673ffffffffffffffffffffffffffffffffffffffff1681526020019081526020016000206000828254019250508190555061189e8361188f60008660006116ba565b61189885611ccc565b176116e2565b6004600083815260200190815260200160002081905550600080838301905073ffffffffffffffffffffffffffffffffffffffff85169150828260007fddf252ad1be2c89b69c2b068fc378daa952ba7f163c4a11628f55a4df523b3ef600080a4600183015b81811461193f57808360007fddf252ad1be2c89b69c2b068fc378daa952ba7f163c4a11628f55a4df523b3ef600080a4600181019050611904565b50600082141561197b576040517f2e07630000000000000000000000000000000000000000000000000000000000815260040160405180910390fd5b806000819055505050611991600084838561170d565b505050565b60008373ffffffffffffffffffffffffffffffffffffffff1663150b7a026119bc611566565b8786866040518563ffffffff1660e01b81526004016119de9493929190612219565b602060405180830381600087803b1580156119f857600080fd5b505af1925050508015611a2957506040513d601f19601f82011682018060405250810190611a269190611f7d565b60015b611aa3573d8060008114611a59576040519150601f19603f3d011682016040523d82523d6000602084013e611a5e565b606091505b50600081511415611a9b576040517fd1a57ed600000000000000000000000000000000000000000000000000000000815260040160405180910390fd5b805181602001fd5b63150b7a0260e01b7bffffffffffffffffffffffffffffffffffffffffffffffffffffffff1916817bffffffffffffffffffffffffffffffffffffffffffffffffffffffff191614915050949350505050565b60606040518060600160405280603681526020016128e860369139905090565b60606000821415611b5e576040518060400160405280600181526020017f30000000000000000000000000000000000000000000000000000000000000008152509050611cbe565b600082905060005b60008214611b90578080611b79906125df565b915050600a82611b899190612461565b9150611b66565b60008167ffffffffffffffff811115611bd2577f4e487b7100000000000000000000000000000000000000000000000000000000600052604160045260246000fd5b6040519080825280601f01601f191660200182016040528015611c045781602001600182028036833780820191505090505b5090505b60008514611cb757600182611c1d9190612492565b9150600a85611c2c9190612628565b6030611c38919061240b565b60f81b818381518110611c74577f4e487b7100000000000000000000000000000000000000000000000000000000600052603260045260246000fd5b60200101907effffffffffffffffffffffffffffffffffffffffffffffffffffffffffffff1916908160001a905350600a85611cb09190612461565b9450611c08565b8093505050505b919050565b60009392505050565b60006001821460e11b9050919050565b6000611cef611cea84612382565b61235d565b905082815260208101848484011115611d0757600080fd5b611d1284828561253a565b509392505050565b600081359050611d298161288b565b92915050565b600081359050611d3e816128a2565b92915050565b600081359050611d53816128b9565b92915050565b600081519050611d68816128b9565b92915050565b600082601f830112611d7f57600080fd5b8135611d8f848260208601611cdc565b91505092915050565b600081359050611da7816128d0565b92915050565b600060208284031215611dbf57600080fd5b6000611dcd84828501611d1a565b91505092915050565b60008060408385031215611de957600080fd5b6000611df785828601611d1a565b9250506020611e0885828601611d1a565b9150509250929050565b600080600060608486031215611e2757600080fd5b6000611e3586828701611d1a565b9350506020611e4686828701611d1a565b9250506040611e5786828701611d98565b9150509250925092565b60008060008060808587031215611e7757600080fd5b6000611e8587828801611d1a565b9450506020611e9687828801611d1a565b9350506040611ea787828801611d98565b925050606085013567ffffffffffffffff811115611ec457600080fd5b611ed087828801611d6e565b91505092959194509250565b60008060408385031215611eef57600080fd5b6000611efd85828601611d1a565b9250506020611f0e85828601611d2f565b9150509250929050565b60008060408385031215611f2b57600080fd5b6000611f3985828601611d1a565b9250506020611f4a85828601611d98565b9150509250929050565b600060208284031215611f6657600080fd5b6000611f7484828501611d44565b91505092915050565b600060208284031215611f8f57600080fd5b6000611f9d84828501611d59565b91505092915050565b600060208284031215611fb857600080fd5b6000611fc684828501611d98565b91505092915050565b611fd8816124c6565b82525050565b611fe7816124d8565b82525050565b6000611ff8826123c8565b61200281856123de565b9350612012818560208601612549565b61201b81612715565b840191505092915050565b6000612031826123d3565b61203b81856123ef565b935061204b818560208601612549565b61205481612715565b840191505092915050565b600061206a826123d3565b6120748185612400565b9350612084818560208601612549565b80840191505092915050565b6000815461209d8161257c565b6120a78186612400565b945060018216600081146120c257600181146120d357612106565b60ff19831686528186019350612106565b6120dc856123b3565b60005b838110156120fe578154818901526001820191506020810190506120df565b838801955050505b50505092915050565b600061211c6026836123ef565b915061212782612726565b604082019050919050565b600061213f6020836123ef565b915061214a82612775565b602082019050919050565b60006121626022836123ef565b915061216d8261279e565b604082019050919050565b6000612185602f836123ef565b9150612190826127ed565b604082019050919050565b60006121a86021836123ef565b91506121b38261283c565b604082019050919050565b6121c781612530565b82525050565b60006121d9828661205f565b91506121e5828561205f565b91506121f18284612090565b9150819050949350505050565b60006020820190506122136000830184611fcf565b92915050565b600060808201905061222e6000830187611fcf565b61223b6020830186611fcf565b61224860408301856121be565b818103606083015261225a8184611fed565b905095945050505050565b600060208201905061227a6000830184611fde565b92915050565b6000602082019050818103600083015261229a8184612026565b905092915050565b600060208201905081810360008301526122bb8161210f565b9050919050565b600060208201905081810360008301526122db81612132565b9050919050565b600060208201905081810360008301526122fb81612155565b9050919050565b6000602082019050818103600083015261231b81612178565b9050919050565b6000602082019050818103600083015261233b8161219b565b9050919050565b600060208201905061235760008301846121be565b92915050565b6000612367612378565b905061237382826125ae565b919050565b6000604051905090565b600067ffffffffffffffff82111561239d5761239c6126e6565b5b6123a682612715565b9050602081019050919050565b60008190508160005260206000209050919050565b600081519050919050565b600081519050919050565b600082825260208201905092915050565b600082825260208201905092915050565b600081905092915050565b600061241682612530565b915061242183612530565b9250827fffffffffffffffffffffffffffffffffffffffffffffffffffffffffffffffff0382111561245657612455612659565b5b828201905092915050565b600061246c82612530565b915061247783612530565b92508261248757612486612688565b5b828204905092915050565b600061249d82612530565b91506124a883612530565b9250828210156124bb576124ba612659565b5b828203905092915050565b60006124d182612510565b9050919050565b60008115159050919050565b60007fffffffff0000000000000000000000000000000000000000000000000000000082169050919050565b600073ffffffffffffffffffffffffffffffffffffffff82169050919050565b6000819050919050565b82818337600083830152505050565b60005b8381101561256757808201518184015260208101905061254c565b83811115612576576000848401525b50505050565b6000600282049050600182168061259457607f821691505b602082108114156125a8576125a76126b7565b5b50919050565b6125b782612715565b810181811067ffffffffffffffff821117156125d6576125d56126e6565b5b80604052505050565b60006125ea82612530565b91507fffffffffffffffffffffffffffffffffffffffffffffffffffffffffffffffff82141561261d5761261c612659565b5b600182019050919050565b600061263382612530565b915061263e83612530565b92508261264e5761264d612688565b5b828206905092915050565b7f4e487b7100000000000000000000000000000000000000000000000000000000600052601160045260246000fd5b7f4e487b7100000000000000000000000000000000000000000000000000000000600052601260045260246000fd5b7f4e487b7100000000000000000000000000000000000000000000000000000000600052602260045260246000fd5b7f4e487b7100000000000000000000000000000000000000000000000000000000600052604160045260246000fd5b6000601f19601f8301169050919050565b7f4f776e61626c653a206e6577206f776e657220697320746865207a65726f206160008201527f6464726573730000000000000000000000000000000000000000000000000000602082015250565b7f4f776e61626c653a2063616c6c6572206973206e6f7420746865206f776e6572600082015250565b7f456163682061646472657373206d6179206f6e6c79206d696e742078204e465460008201527f7321000000000000000000000000000000000000000000000000000000000000602082015250565b7f4552433732314d657461646174613a2055524920717565727920666f72206e6f60008201527f6e6578697374656e7420746f6b656e0000000000000000000000000000000000602082015250565b7f4e6f7420656e6f756768204554482073656e743b20636865636b20707269636560008201527f2100000000000000000000000000000000000000000000000000000000000000602082015250565b612894816124c6565b811461289f57600080fd5b50565b6128ab816124d8565b81146128b657600080fd5b50565b6128c2816124e4565b81146128cd57600080fd5b50565b6128d981612530565b81146128e457600080fd5b5056fe697066733a2f2f516d636d4e6b416647544c636e6e51683631444e4476785666684e646f3566357a4b31674658654576436e4531422f697066733a2f2f516d53457048757258546a346738444b4d594e686847716e4466393379474c706962635936324178677445444a6e2fa2646970667358221220e543878073a6afd8a8ea9f4dad78bda6a871c7f7cf57f8908ef438911fc6980f64736f6c63430008040033",
  "linkReferences": {},
  "deployedLinkReferences": {}
}