{
  "_format": "hh-sol-artifact-1",
  "contractName": "NFT",
  "sourceName": "src/backend/contracts/NFT.sol",
  "abi": [
    {
      "inputs": [
        {
          "internalType": "address",
          "name": "_teamWallet",
          "type": "address"
        }
      ],
      "stateMutability": "nonpayable",
      "type": "constructor"
    },
    {
      "inputs": [],
      "name": "ApprovalCallerNotOwnerNorApproved",
      "type": "error"
    },
    {
      "inputs": [],
      "name": "ApprovalQueryForNonexistentToken",
      "type": "error"
    },
    {
      "inputs": [],
      "name": "BalanceQueryForZeroAddress",
      "type": "error"
    },
    {
      "inputs": [],
      "name": "MintERC2309QuantityExceedsLimit",
      "type": "error"
    },
    {
      "inputs": [],
      "name": "MintToZeroAddress",
      "type": "error"
    },
    {
      "inputs": [],
      "name": "MintZeroQuantity",
      "type": "error"
    },
    {
      "inputs": [],
      "name": "OwnerQueryForNonexistentToken",
      "type": "error"
    },
    {
      "inputs": [],
      "name": "OwnershipNotInitializedForExtraData",
      "type": "error"
    },
    {
      "inputs": [],
      "name": "TransferCallerNotOwnerNorApproved",
      "type": "error"
    },
    {
      "inputs": [],
      "name": "TransferFromIncorrectOwner",
      "type": "error"
    },
    {
      "inputs": [],
      "name": "TransferToNonERC721ReceiverImplementer",
      "type": "error"
    },
    {
      "inputs": [],
      "name": "TransferToZeroAddress",
      "type": "error"
    },
    {
      "inputs": [],
      "name": "URIQueryForNonexistentToken",
      "type": "error"
    },
    {
      "anonymous": false,
      "inputs": [
        {
          "indexed": true,
          "internalType": "address",
          "name": "owner",
          "type": "address"
        },
        {
          "indexed": true,
          "internalType": "address",
          "name": "approved",
          "type": "address"
        },
        {
          "indexed": true,
          "internalType": "uint256",
          "name": "tokenId",
          "type": "uint256"
        }
      ],
      "name": "Approval",
      "type": "event"
    },
    {
      "anonymous": false,
      "inputs": [
        {
          "indexed": true,
          "internalType": "address",
          "name": "owner",
          "type": "address"
        },
        {
          "indexed": true,
          "internalType": "address",
          "name": "operator",
          "type": "address"
        },
        {
          "indexed": false,
          "internalType": "bool",
          "name": "approved",
          "type": "bool"
        }
      ],
      "name": "ApprovalForAll",
      "type": "event"
    },
    {
      "anonymous": false,
      "inputs": [
        {
          "indexed": true,
          "internalType": "uint256",
          "name": "fromTokenId",
          "type": "uint256"
        },
        {
          "indexed": false,
          "internalType": "uint256",
          "name": "toTokenId",
          "type": "uint256"
        },
        {
          "indexed": true,
          "internalType": "address",
          "name": "from",
          "type": "address"
        },
        {
          "indexed": true,
          "internalType": "address",
          "name": "to",
          "type": "address"
        }
      ],
      "name": "ConsecutiveTransfer",
      "type": "event"
    },
    {
      "anonymous": false,
      "inputs": [
        {
          "indexed": false,
          "internalType": "address",
          "name": "user",
          "type": "address"
        }
      ],
      "name": "MintSuccessful",
      "type": "event"
    },
    {
      "anonymous": false,
      "inputs": [
        {
          "indexed": true,
          "internalType": "address",
          "name": "previousOwner",
          "type": "address"
        },
        {
          "indexed": true,
          "internalType": "address",
          "name": "newOwner",
          "type": "address"
        }
      ],
      "name": "OwnershipTransferred",
      "type": "event"
    },
    {
      "anonymous": false,
      "inputs": [
        {
          "indexed": true,
          "internalType": "address",
          "name": "from",
          "type": "address"
        },
        {
          "indexed": true,
          "internalType": "address",
          "name": "to",
          "type": "address"
        },
        {
          "indexed": true,
          "internalType": "uint256",
          "name": "tokenId",
          "type": "uint256"
        }
      ],
      "name": "Transfer",
      "type": "event"
    },
    {
      "inputs": [],
      "name": "amountMintPerAccount",
      "outputs": [
        {
          "internalType": "uint256",
          "name": "",
          "type": "uint256"
        }
      ],
      "stateMutability": "view",
      "type": "function"
    },
    {
      "inputs": [
        {
          "internalType": "address",
          "name": "to",
          "type": "address"
        },
        {
          "internalType": "uint256",
          "name": "tokenId",
          "type": "uint256"
        }
      ],
      "name": "approve",
      "outputs": [],
      "stateMutability": "payable",
      "type": "function"
    },
    {
      "inputs": [
        {
          "internalType": "address",
          "name": "owner",
          "type": "address"
        }
      ],
      "name": "balanceOf",
      "outputs": [
        {
          "internalType": "uint256",
          "name": "",
          "type": "uint256"
        }
      ],
      "stateMutability": "view",
      "type": "function"
    },
    {
      "inputs": [],
      "name": "baseTokenURI",
      "outputs": [
        {
          "internalType": "string",
          "name": "",
          "type": "string"
        }
      ],
      "stateMutability": "pure",
      "type": "function"
    },
    {
      "inputs": [],
      "name": "contractURI",
      "outputs": [
        {
          "internalType": "string",
          "name": "",
          "type": "string"
        }
      ],
      "stateMutability": "pure",
      "type": "function"
    },
    {
      "inputs": [
        {
          "internalType": "uint256",
          "name": "tokenId",
          "type": "uint256"
        }
      ],
      "name": "getApproved",
      "outputs": [
        {
          "internalType": "address",
          "name": "",
          "type": "address"
        }
      ],
      "stateMutability": "view",
      "type": "function"
    },
    {
      "inputs": [],
      "name": "getPrice",
      "outputs": [
        {
          "internalType": "uint256",
          "name": "",
          "type": "uint256"
        }
      ],
      "stateMutability": "view",
      "type": "function"
    },
    {
      "inputs": [
        {
          "internalType": "address",
          "name": "owner",
          "type": "address"
        },
        {
          "internalType": "address",
          "name": "operator",
          "type": "address"
        }
      ],
      "name": "isApprovedForAll",
      "outputs": [
        {
          "internalType": "bool",
          "name": "",
          "type": "bool"
        }
      ],
      "stateMutability": "view",
      "type": "function"
    },
    {
      "inputs": [],
      "name": "max_supply",
      "outputs": [
        {
          "internalType": "uint256",
          "name": "",
          "type": "uint256"
        }
      ],
      "stateMutability": "view",
      "type": "function"
    },
    {
      "inputs": [
        {
          "internalType": "uint256",
          "name": "_quantity",
          "type": "uint256"
        }
      ],
      "name": "mint",
      "outputs": [],
      "stateMutability": "payable",
      "type": "function"
    },
    {
      "inputs": [],
      "name": "name",
      "outputs": [
        {
          "internalType": "string",
          "name": "",
          "type": "string"
        }
      ],
      "stateMutability": "view",
      "type": "function"
    },
    {
      "inputs": [],
      "name": "owner",
      "outputs": [
        {
          "internalType": "address",
          "name": "",
          "type": "address"
        }
      ],
      "stateMutability": "view",
      "type": "function"
    },
    {
      "inputs": [
        {
          "internalType": "uint256",
          "name": "tokenId",
          "type": "uint256"
        }
      ],
      "name": "ownerOf",
      "outputs": [
        {
          "internalType": "address",
          "name": "",
          "type": "address"
        }
      ],
      "stateMutability": "view",
      "type": "function"
    },
    {
      "inputs": [],
      "name": "price",
      "outputs": [
        {
          "internalType": "uint256",
          "name": "",
          "type": "uint256"
        }
      ],
      "stateMutability": "view",
      "type": "function"
    },
    {
      "inputs": [],
      "name": "renounceOwnership",
      "outputs": [],
      "stateMutability": "nonpayable",
      "type": "function"
    },
    {
      "inputs": [
        {
          "internalType": "address",
          "name": "from",
          "type": "address"
        },
        {
          "internalType": "address",
          "name": "to",
          "type": "address"
        },
        {
          "internalType": "uint256",
          "name": "tokenId",
          "type": "uint256"
        }
      ],
      "name": "safeTransferFrom",
      "outputs": [],
      "stateMutability": "payable",
      "type": "function"
    },
    {
      "inputs": [
        {
          "internalType": "address",
          "name": "from",
          "type": "address"
        },
        {
          "internalType": "address",
          "name": "to",
          "type": "address"
        },
        {
          "internalType": "uint256",
          "name": "tokenId",
          "type": "uint256"
        },
        {
          "internalType": "bytes",
          "name": "_data",
          "type": "bytes"
        }
      ],
      "name": "safeTransferFrom",
      "outputs": [],
      "stateMutability": "payable",
      "type": "function"
    },
    {
      "inputs": [
        {
          "internalType": "uint256",
          "name": "_amountMintPerAccount",
          "type": "uint256"
        }
      ],
      "name": "setAmountMintPerAccount",
      "outputs": [],
      "stateMutability": "nonpayable",
      "type": "function"
    },
    {
      "inputs": [
        {
          "internalType": "address",
          "name": "operator",
          "type": "address"
        },
        {
          "internalType": "bool",
          "name": "approved",
          "type": "bool"
        }
      ],
      "name": "setApprovalForAll",
      "outputs": [],
      "stateMutability": "nonpayable",
      "type": "function"
    },
    {
      "inputs": [
        {
          "internalType": "uint256",
          "name": "_price",
          "type": "uint256"
        }
      ],
      "name": "setPrice",
      "outputs": [],
      "stateMutability": "nonpayable",
      "type": "function"
    },
    {
      "inputs": [
        {
          "internalType": "bytes4",
          "name": "interfaceId",
          "type": "bytes4"
        }
      ],
      "name": "supportsInterface",
      "outputs": [
        {
          "internalType": "bool",
          "name": "",
          "type": "bool"
        }
      ],
      "stateMutability": "view",
      "type": "function"
    },
    {
      "inputs": [],
      "name": "symbol",
      "outputs": [
        {
          "internalType": "string",
          "name": "",
          "type": "string"
        }
      ],
      "stateMutability": "view",
      "type": "function"
    },
    {
      "inputs": [
        {
          "internalType": "uint256",
          "name": "_tokenId",
          "type": "uint256"
        }
      ],
      "name": "tokenURI",
      "outputs": [
        {
          "internalType": "string",
          "name": "",
          "type": "string"
        }
      ],
      "stateMutability": "view",
      "type": "function"
    },
    {
      "inputs": [],
      "name": "totalSupply",
      "outputs": [
        {
          "internalType": "uint256",
          "name": "",
          "type": "uint256"
        }
      ],
      "stateMutability": "view",
      "type": "function"
    },
    {
      "inputs": [
        {
          "internalType": "address",
          "name": "from",
          "type": "address"
        },
        {
          "internalType": "address",
          "name": "to",
          "type": "address"
        },
        {
          "internalType": "uint256",
          "name": "tokenId",
          "type": "uint256"
        }
      ],
      "name": "transferFrom",
      "outputs": [],
      "stateMutability": "payable",
      "type": "function"
    },
    {
      "inputs": [
        {
          "internalType": "address",
          "name": "newOwner",
          "type": "address"
        }
      ],
      "name": "transferOwnership",
      "outputs": [],
      "stateMutability": "nonpayable",
      "type": "function"
    },
    {
      "inputs": [],
      "name": "uriPrefix",
      "outputs": [
        {
          "internalType": "string",
          "name": "",
          "type": "string"
        }
      ],
      "stateMutability": "view",
      "type": "function"
    },
    {
      "inputs": [],
      "name": "uriSuffix",
      "outputs": [
        {
          "internalType": "string",
          "name": "",
          "type": "string"
        }
      ],
      "stateMutability": "view",
      "type": "function"
    },
    {
      "inputs": [],
      "name": "withdraw",
      "outputs": [],
      "stateMutability": "nonpayable",
      "type": "function"
    }
  ],
  "bytecode": "0x608060405260405180602001604052806000815250600990805190602001906200002b929190620003c8565b506040518060400160405280600581526020017f2e6a736f6e000000000000000000000000000000000000000000000000000000815250600a908051906020019062000079929190620003c8565b50612710600b55600a600c5566b1a2bc2ec50000600d553480156200009d57600080fd5b5060405162003283380380620032838339818101604052810190620000c391906200048f565b6040518060400160405280600d81526020017f465245414b5920524142424954000000000000000000000000000000000000008152506040518060400160405280600281526020017f4652000000000000000000000000000000000000000000000000000000000000815250816002908051906020019062000147929190620003c8565b50806003908051906020019062000160929190620003c8565b5062000171620001b160201b60201c565b6000819055505050620001996200018d620001ba60201b60201c565b620001c260201b60201c565b620001aa816200028860201b60201c565b5062000689565b60006001905090565b600033905090565b6000600860009054906101000a900473ffffffffffffffffffffffffffffffffffffffff16905081600860006101000a81548173ffffffffffffffffffffffffffffffffffffffff021916908373ffffffffffffffffffffffffffffffffffffffff1602179055508173ffffffffffffffffffffffffffffffffffffffff168173ffffffffffffffffffffffffffffffffffffffff167f8be0079c531659141344cd1fd0a4f28419497f9722a3daafe3b4186f6b6457e060405160405180910390a35050565b62000298620001ba60201b60201c565b73ffffffffffffffffffffffffffffffffffffffff16620002be6200039e60201b60201c565b73ffffffffffffffffffffffffffffffffffffffff161462000317576040517f08c379a00000000000000000000000000000000000000000000000000000000081526004016200030e906200052b565b60405180910390fd5b600073ffffffffffffffffffffffffffffffffffffffff168173ffffffffffffffffffffffffffffffffffffffff1614156200038a576040517f08c379a0000000000000000000000000000000000000000000000000000000008152600401620003819062000509565b60405180910390fd5b6200039b81620001c260201b60201c565b50565b6000600860009054906101000a900473ffffffffffffffffffffffffffffffffffffffff16905090565b828054620003d69062000592565b90600052602060002090601f016020900481019282620003fa576000855562000446565b82601f106200041557805160ff191683800117855562000446565b8280016001018555821562000446579182015b828111156200044557825182559160200191906001019062000428565b5b50905062000455919062000459565b5090565b5b80821115620004745760008160009055506001016200045a565b5090565b60008151905062000489816200066f565b92915050565b600060208284031215620004a257600080fd5b6000620004b28482850162000478565b91505092915050565b6000620004ca6026836200054d565b9150620004d782620005f7565b604082019050919050565b6000620004f16020836200054d565b9150620004fe8262000646565b602082019050919050565b600060208201905081810360008301526200052481620004bb565b9050919050565b600060208201905081810360008301526200054681620004e2565b9050919050565b600082825260208201905092915050565b60006200056b8262000572565b9050919050565b600073ffffffffffffffffffffffffffffffffffffffff82169050919050565b60006002820490506001821680620005ab57607f821691505b60208210811415620005c257620005c1620005c8565b5b50919050565b7f4e487b7100000000000000000000000000000000000000000000000000000000600052602260045260246000fd5b7f4f776e61626c653a206e6577206f776e657220697320746865207a65726f206160008201527f6464726573730000000000000000000000000000000000000000000000000000602082015250565b7f4f776e61626c653a2063616c6c6572206973206e6f7420746865206f776e6572600082015250565b6200067a816200055e565b81146200068657600080fd5b50565b612bea80620006996000396000f3fe6080604052600436106101c25760003560e01c80638a333b50116100f7578063a22cb46511610095578063d547cfb711610064578063d547cfb7146105db578063e8a3d48514610606578063e985e9c514610631578063f2fde38b1461066e576101c2565b8063a22cb4651461052e578063a827b5ff14610557578063b88d4fde14610582578063c87b56dd1461059e576101c2565b806395d89b41116100d157806395d89b411461049157806398d5fdca146104bc578063a035b1fe146104e7578063a0712d6814610512576101c2565b80638a333b50146104125780638da5cb5b1461043d57806391b7f5ed14610468576101c2565b80633ccfd60b1161016457806362b99ad41161013e57806362b99ad4146103565780636352211e1461038157806370a08231146103be578063715018a6146103fb576101c2565b80633ccfd60b146102f857806342842e0e1461030f5780635503a0e81461032b576101c2565b8063095ea7b3116101a0578063095ea7b31461026c578063112966601461028857806318160ddd146102b157806323b872dd146102dc576101c2565b806301ffc9a7146101c757806306fdde0314610204578063081812fc1461022f575b600080fd5b3480156101d357600080fd5b506101ee60048036038101906101e9919061215b565b610697565b6040516101fb919061246c565b60405180910390f35b34801561021057600080fd5b50610219610729565b6040516102269190612487565b60405180910390f35b34801561023b57600080fd5b50610256600480360381019061025191906121ad565b6107bb565b6040516102639190612405565b60405180910390f35b6102866004803603810190610281919061211f565b61083a565b005b34801561029457600080fd5b506102af60048036038101906102aa91906121ad565b61097e565b005b3480156102bd57600080fd5b506102c6610a04565b6040516102d39190612549565b60405180910390f35b6102f660048036038101906102f19190612019565b610a1b565b005b34801561030457600080fd5b5061030d610d40565b005b61032960048036038101906103249190612019565b610e05565b005b34801561033757600080fd5b50610340610e25565b60405161034d9190612487565b60405180910390f35b34801561036257600080fd5b5061036b610eb3565b6040516103789190612487565b60405180910390f35b34801561038d57600080fd5b506103a860048036038101906103a391906121ad565b610f41565b6040516103b59190612405565b60405180910390f35b3480156103ca57600080fd5b506103e560048036038101906103e09190611fb4565b610f53565b6040516103f29190612549565b60405180910390f35b34801561040757600080fd5b5061041061100c565b005b34801561041e57600080fd5b50610427611094565b6040516104349190612549565b60405180910390f35b34801561044957600080fd5b5061045261109a565b60405161045f9190612405565b60405180910390f35b34801561047457600080fd5b5061048f600480360381019061048a91906121ad565b6110c4565b005b34801561049d57600080fd5b506104a661114a565b6040516104b39190612487565b60405180910390f35b3480156104c857600080fd5b506104d16111dc565b6040516104de9190612549565b60405180910390f35b3480156104f357600080fd5b506104fc61122a565b6040516105099190612549565b60405180910390f35b61052c600480360381019061052791906121ad565b611230565b005b34801561053a57600080fd5b50610555600480360381019061055091906120e3565b611321565b005b34801561056357600080fd5b5061056c61142c565b6040516105799190612549565b60405180910390f35b61059c60048036038101906105979190612068565b611432565b005b3480156105aa57600080fd5b506105c560048036038101906105c091906121ad565b6114a5565b6040516105d29190612487565b60405180910390f35b3480156105e757600080fd5b506105f061154f565b6040516105fd9190612487565b60405180910390f35b34801561061257600080fd5b5061061b61155e565b6040516106289190612487565b60405180910390f35b34801561063d57600080fd5b5061065860048036038101906106539190611fdd565b61157e565b604051610665919061246c565b60405180910390f35b34801561067a57600080fd5b5061069560048036038101906106909190611fb4565b611612565b005b60006301ffc9a760e01b827bffffffffffffffffffffffffffffffffffffffffffffffffffffffff191614806106f257506380ac58cd60e01b827bffffffffffffffffffffffffffffffffffffffffffffffffffffffff1916145b806107225750635b5e139f60e01b827bffffffffffffffffffffffffffffffffffffffffffffffffffffffff1916145b9050919050565b606060028054610738906127dd565b80601f0160208091040260200160405190810160405280929190818152602001828054610764906127dd565b80156107b15780601f10610786576101008083540402835291602001916107b1565b820191906000526020600020905b81548152906001019060200180831161079457829003601f168201915b5050505050905090565b60006107c68261170a565b6107fc576040517fcf4700e400000000000000000000000000000000000000000000000000000000815260040160405180910390fd5b6006600083815260200190815260200160002060000160009054906101000a900473ffffffffffffffffffffffffffffffffffffffff169050919050565b600061084582610f41565b90508073ffffffffffffffffffffffffffffffffffffffff16610866611769565b73ffffffffffffffffffffffffffffffffffffffff16146108c9576108928161088d611769565b61157e565b6108c8576040517fcfb3b94200000000000000000000000000000000000000000000000000000000815260040160405180910390fd5b5b826006600084815260200190815260200160002060000160006101000a81548173ffffffffffffffffffffffffffffffffffffffff021916908373ffffffffffffffffffffffffffffffffffffffff160217905550818373ffffffffffffffffffffffffffffffffffffffff168273ffffffffffffffffffffffffffffffffffffffff167f8c5be1e5ebec7d5bd14f71427d1e84f3dd0314c0f7b2291e5b200ac8c7c3b92560405160405180910390a4505050565b610986611771565b73ffffffffffffffffffffffffffffffffffffffff166109a461109a565b73ffffffffffffffffffffffffffffffffffffffff16146109fa576040517f08c379a00000000000000000000000000000000000000000000000000000000081526004016109f1906124c9565b60405180910390fd5b80600c8190555050565b6000610a0e611779565b6001546000540303905090565b6000610a2682611782565b90508373ffffffffffffffffffffffffffffffffffffffff168173ffffffffffffffffffffffffffffffffffffffff1614610a8d576040517fa114810000000000000000000000000000000000000000000000000000000000815260040160405180910390fd5b600080610a9984611850565b91509150610aaf8187610aaa611769565b611877565b610afb57610ac486610abf611769565b61157e565b610afa576040517f59c896be00000000000000000000000000000000000000000000000000000000815260040160405180910390fd5b5b600073ffffffffffffffffffffffffffffffffffffffff168573ffffffffffffffffffffffffffffffffffffffff161415610b62576040517fea553b3400000000000000000000000000000000000000000000000000000000815260040160405180910390fd5b610b6f86868660016118bb565b8015610b7a57600082555b600560008773ffffffffffffffffffffffffffffffffffffffff1673ffffffffffffffffffffffffffffffffffffffff168152602001908152602001600020600081546001900391905081905550600560008673ffffffffffffffffffffffffffffffffffffffff1673ffffffffffffffffffffffffffffffffffffffff1681526020019081526020016000206000815460010191905081905550610c4885610c248888876118c1565b7c0200000000000000000000000000000000000000000000000000000000176118e9565b600460008681526020019081526020016000208190555060007c020000000000000000000000000000000000000000000000000000000084161415610cd0576000600185019050600060046000838152602001908152602001600020541415610cce576000548114610ccd578360046000838152602001908152602001600020819055505b5b505b838573ffffffffffffffffffffffffffffffffffffffff168773ffffffffffffffffffffffffffffffffffffffff167fddf252ad1be2c89b69c2b068fc378daa952ba7f163c4a11628f55a4df523b3ef60405160405180910390a4610d388686866001611914565b505050505050565b610d48611771565b73ffffffffffffffffffffffffffffffffffffffff16610d6661109a565b73ffffffffffffffffffffffffffffffffffffffff1614610dbc576040517f08c379a0000000000000000000000000000000000000000000000000000000008152600401610db3906124c9565b60405180910390fd5b3373ffffffffffffffffffffffffffffffffffffffff166108fc479081150290604051600060405180830381858888f19350505050158015610e02573d6000803e3d6000fd5b50565b610e2083838360405180602001604052806000815250611432565b505050565b600a8054610e32906127dd565b80601f0160208091040260200160405190810160405280929190818152602001828054610e5e906127dd565b8015610eab5780601f10610e8057610100808354040283529160200191610eab565b820191906000526020600020905b815481529060010190602001808311610e8e57829003601f168201915b505050505081565b60098054610ec0906127dd565b80601f0160208091040260200160405190810160405280929190818152602001828054610eec906127dd565b8015610f395780601f10610f0e57610100808354040283529160200191610f39565b820191906000526020600020905b815481529060010190602001808311610f1c57829003601f168201915b505050505081565b6000610f4c82611782565b9050919050565b60008073ffffffffffffffffffffffffffffffffffffffff168273ffffffffffffffffffffffffffffffffffffffff161415610fbb576040517f8f4eb60400000000000000000000000000000000000000000000000000000000815260040160405180910390fd5b67ffffffffffffffff600560008473ffffffffffffffffffffffffffffffffffffffff1673ffffffffffffffffffffffffffffffffffffffff16815260200190815260200160002054169050919050565b611014611771565b73ffffffffffffffffffffffffffffffffffffffff1661103261109a565b73ffffffffffffffffffffffffffffffffffffffff1614611088576040517f08c379a000000000000000000000000000000000000000000000000000000000815260040161107f906124c9565b60405180910390fd5b611092600061191a565b565b600b5481565b6000600860009054906101000a900473ffffffffffffffffffffffffffffffffffffffff16905090565b6110cc611771565b73ffffffffffffffffffffffffffffffffffffffff166110ea61109a565b73ffffffffffffffffffffffffffffffffffffffff1614611140576040517f08c379a0000000000000000000000000000000000000000000000000000000008152600401611137906124c9565b60405180910390fd5b80600d8190555050565b606060038054611159906127dd565b80601f0160208091040260200160405190810160405280929190818152602001828054611185906127dd565b80156111d25780601f106111a7576101008083540402835291602001916111d2565b820191906000526020600020905b8154815290600101906020018083116111b557829003601f168201915b5050505050905090565b60006111e661109a565b73ffffffffffffffffffffffffffffffffffffffff163373ffffffffffffffffffffffffffffffffffffffff161461122257600d549050611227565b600090505b90565b600d5481565b806112396111dc565b6112439190612699565b341015611285576040517f08c379a000000000000000000000000000000000000000000000000000000000815260040161127c90612529565b60405180910390fd5b600c548161129233610f53565b61129c9190612612565b11156112dd576040517f08c379a00000000000000000000000000000000000000000000000000000000081526004016112d4906124e9565b60405180910390fd5b6112e733826119e0565b7ff5535ccd9f40eb4bc73fac8710dbb2effbf3329da83f62b35d9aa88161bb85ca336040516113169190612405565b60405180910390a150565b806007600061132e611769565b73ffffffffffffffffffffffffffffffffffffffff1673ffffffffffffffffffffffffffffffffffffffff16815260200190815260200160002060008473ffffffffffffffffffffffffffffffffffffffff1673ffffffffffffffffffffffffffffffffffffffff16815260200190815260200160002060006101000a81548160ff0219169083151502179055508173ffffffffffffffffffffffffffffffffffffffff166113db611769565b73ffffffffffffffffffffffffffffffffffffffff167f17307eab39ab6107e8899845ad3d59bd9653f200f220920489ca2b5937696c3183604051611420919061246c565b60405180910390a35050565b600c5481565b61143d848484610a1b565b60008373ffffffffffffffffffffffffffffffffffffffff163b1461149f5761146884848484611b9d565b61149e576040517fd1a57ed600000000000000000000000000000000000000000000000000000000815260040160405180910390fd5b5b50505050565b60606114b08261170a565b6114ef576040517f08c379a00000000000000000000000000000000000000000000000000000000081526004016114e690612509565b60405180910390fd5b60006114f9611cfd565b905060008151116115195760405180602001604052806000815250611547565b8061152384611d1d565b600a604051602001611537939291906123d4565b6040516020818303038152906040525b915050919050565b6060611559611cfd565b905090565b6060604051806060016040528060368152602001612b7f60369139905090565b6000600760008473ffffffffffffffffffffffffffffffffffffffff1673ffffffffffffffffffffffffffffffffffffffff16815260200190815260200160002060008373ffffffffffffffffffffffffffffffffffffffff1673ffffffffffffffffffffffffffffffffffffffff16815260200190815260200160002060009054906101000a900460ff16905092915050565b61161a611771565b73ffffffffffffffffffffffffffffffffffffffff1661163861109a565b73ffffffffffffffffffffffffffffffffffffffff161461168e576040517f08c379a0000000000000000000000000000000000000000000000000000000008152600401611685906124c9565b60405180910390fd5b600073ffffffffffffffffffffffffffffffffffffffff168173ffffffffffffffffffffffffffffffffffffffff1614156116fe576040517f08c379a00000000000000000000000000000000000000000000000000000000081526004016116f5906124a9565b60405180910390fd5b6117078161191a565b50565b600081611715611779565b11158015611724575060005482105b8015611762575060007c0100000000000000000000000000000000000000000000000000000000600460008581526020019081526020016000205416145b9050919050565b600033905090565b600033905090565b60006001905090565b60008082905080611791611779565b11611819576000548110156118185760006004600083815260200190815260200160002054905060007c010000000000000000000000000000000000000000000000000000000082161415611816575b600081141561180c5760046000836001900393508381526020019081526020016000205490506117e1565b809250505061184b565b505b5b6040517fdf2d9b4200000000000000000000000000000000000000000000000000000000815260040160405180910390fd5b919050565b60008060006006600085815260200190815260200160002090508092508254915050915091565b600073ffffffffffffffffffffffffffffffffffffffff8316925073ffffffffffffffffffffffffffffffffffffffff821691508382148383141790509392505050565b50505050565b60008060e883901c905060e86118d8868684611eca565b62ffffff16901b9150509392505050565b600073ffffffffffffffffffffffffffffffffffffffff83169250814260a01b178317905092915050565b50505050565b6000600860009054906101000a900473ffffffffffffffffffffffffffffffffffffffff16905081600860006101000a81548173ffffffffffffffffffffffffffffffffffffffff021916908373ffffffffffffffffffffffffffffffffffffffff1602179055508173ffffffffffffffffffffffffffffffffffffffff168173ffffffffffffffffffffffffffffffffffffffff167f8be0079c531659141344cd1fd0a4f28419497f9722a3daafe3b4186f6b6457e060405160405180910390a35050565b6000805490506000821415611a21576040517fb562e8dd00000000000000000000000000000000000000000000000000000000815260040160405180910390fd5b611a2e60008483856118bb565b600160406001901b178202600560008573ffffffffffffffffffffffffffffffffffffffff1673ffffffffffffffffffffffffffffffffffffffff16815260200190815260200160002060008282540192505081905550611aa583611a9660008660006118c1565b611a9f85611ed3565b176118e9565b6004600083815260200190815260200160002081905550600080838301905073ffffffffffffffffffffffffffffffffffffffff85169150828260007fddf252ad1be2c89b69c2b068fc378daa952ba7f163c4a11628f55a4df523b3ef600080a4600183015b818114611b4657808360007fddf252ad1be2c89b69c2b068fc378daa952ba7f163c4a11628f55a4df523b3ef600080a4600181019050611b0b565b506000821415611b82576040517f2e07630000000000000000000000000000000000000000000000000000000000815260040160405180910390fd5b806000819055505050611b986000848385611914565b505050565b60008373ffffffffffffffffffffffffffffffffffffffff1663150b7a02611bc3611769565b8786866040518563ffffffff1660e01b8152600401611be59493929190612420565b602060405180830381600087803b158015611bff57600080fd5b505af1925050508015611c3057506040513d601f19601f82011682018060405250810190611c2d9190612184565b60015b611caa573d8060008114611c60576040519150601f19603f3d011682016040523d82523d6000602084013e611c65565b606091505b50600081511415611ca2576040517fd1a57ed600000000000000000000000000000000000000000000000000000000815260040160405180910390fd5b805181602001fd5b63150b7a0260e01b7bffffffffffffffffffffffffffffffffffffffffffffffffffffffff1916817bffffffffffffffffffffffffffffffffffffffffffffffffffffffff191614915050949350505050565b6060604051806060016040528060368152602001612b4960369139905090565b60606000821415611d65576040518060400160405280600181526020017f30000000000000000000000000000000000000000000000000000000000000008152509050611ec5565b600082905060005b60008214611d97578080611d8090612840565b915050600a82611d909190612668565b9150611d6d565b60008167ffffffffffffffff811115611dd9577f4e487b7100000000000000000000000000000000000000000000000000000000600052604160045260246000fd5b6040519080825280601f01601f191660200182016040528015611e0b5781602001600182028036833780820191505090505b5090505b60008514611ebe57600182611e2491906126f3565b9150600a85611e339190612889565b6030611e3f9190612612565b60f81b818381518110611e7b577f4e487b7100000000000000000000000000000000000000000000000000000000600052603260045260246000fd5b60200101907effffffffffffffffffffffffffffffffffffffffffffffffffffffffffffff1916908160001a905350600a85611eb79190612668565b9450611e0f565b8093505050505b919050565b60009392505050565b60006001821460e11b9050919050565b6000611ef6611ef184612589565b612564565b905082815260208101848484011115611f0e57600080fd5b611f1984828561279b565b509392505050565b600081359050611f3081612aec565b92915050565b600081359050611f4581612b03565b92915050565b600081359050611f5a81612b1a565b92915050565b600081519050611f6f81612b1a565b92915050565b600082601f830112611f8657600080fd5b8135611f96848260208601611ee3565b91505092915050565b600081359050611fae81612b31565b92915050565b600060208284031215611fc657600080fd5b6000611fd484828501611f21565b91505092915050565b60008060408385031215611ff057600080fd5b6000611ffe85828601611f21565b925050602061200f85828601611f21565b9150509250929050565b60008060006060848603121561202e57600080fd5b600061203c86828701611f21565b935050602061204d86828701611f21565b925050604061205e86828701611f9f565b9150509250925092565b6000806000806080858703121561207e57600080fd5b600061208c87828801611f21565b945050602061209d87828801611f21565b93505060406120ae87828801611f9f565b925050606085013567ffffffffffffffff8111156120cb57600080fd5b6120d787828801611f75565b91505092959194509250565b600080604083850312156120f657600080fd5b600061210485828601611f21565b925050602061211585828601611f36565b9150509250929050565b6000806040838503121561213257600080fd5b600061214085828601611f21565b925050602061215185828601611f9f565b9150509250929050565b60006020828403121561216d57600080fd5b600061217b84828501611f4b565b91505092915050565b60006020828403121561219657600080fd5b60006121a484828501611f60565b91505092915050565b6000602082840312156121bf57600080fd5b60006121cd84828501611f9f565b91505092915050565b6121df81612727565b82525050565b6121ee81612739565b82525050565b60006121ff826125cf565b61220981856125e5565b93506122198185602086016127aa565b61222281612976565b840191505092915050565b6000612238826125da565b61224281856125f6565b93506122528185602086016127aa565b61225b81612976565b840191505092915050565b6000612271826125da565b61227b8185612607565b935061228b8185602086016127aa565b80840191505092915050565b600081546122a4816127dd565b6122ae8186612607565b945060018216600081146122c957600181146122da5761230d565b60ff1983168652818601935061230d565b6122e3856125ba565b60005b83811015612305578154818901526001820191506020810190506122e6565b838801955050505b50505092915050565b60006123236026836125f6565b915061232e82612987565b604082019050919050565b60006123466020836125f6565b9150612351826129d6565b602082019050919050565b60006123696022836125f6565b9150612374826129ff565b604082019050919050565b600061238c602f836125f6565b915061239782612a4e565b604082019050919050565b60006123af6021836125f6565b91506123ba82612a9d565b604082019050919050565b6123ce81612791565b82525050565b60006123e08286612266565b91506123ec8285612266565b91506123f88284612297565b9150819050949350505050565b600060208201905061241a60008301846121d6565b92915050565b600060808201905061243560008301876121d6565b61244260208301866121d6565b61244f60408301856123c5565b818103606083015261246181846121f4565b905095945050505050565b600060208201905061248160008301846121e5565b92915050565b600060208201905081810360008301526124a1818461222d565b905092915050565b600060208201905081810360008301526124c281612316565b9050919050565b600060208201905081810360008301526124e281612339565b9050919050565b600060208201905081810360008301526125028161235c565b9050919050565b600060208201905081810360008301526125228161237f565b9050919050565b60006020820190508181036000830152612542816123a2565b9050919050565b600060208201905061255e60008301846123c5565b92915050565b600061256e61257f565b905061257a828261280f565b919050565b6000604051905090565b600067ffffffffffffffff8211156125a4576125a3612947565b5b6125ad82612976565b9050602081019050919050565b60008190508160005260206000209050919050565b600081519050919050565b600081519050919050565b600082825260208201905092915050565b600082825260208201905092915050565b600081905092915050565b600061261d82612791565b915061262883612791565b9250827fffffffffffffffffffffffffffffffffffffffffffffffffffffffffffffffff0382111561265d5761265c6128ba565b5b828201905092915050565b600061267382612791565b915061267e83612791565b92508261268e5761268d6128e9565b5b828204905092915050565b60006126a482612791565b91506126af83612791565b9250817fffffffffffffffffffffffffffffffffffffffffffffffffffffffffffffffff04831182151516156126e8576126e76128ba565b5b828202905092915050565b60006126fe82612791565b915061270983612791565b92508282101561271c5761271b6128ba565b5b828203905092915050565b600061273282612771565b9050919050565b60008115159050919050565b60007fffffffff0000000000000000000000000000000000000000000000000000000082169050919050565b600073ffffffffffffffffffffffffffffffffffffffff82169050919050565b6000819050919050565b82818337600083830152505050565b60005b838110156127c85780820151818401526020810190506127ad565b838111156127d7576000848401525b50505050565b600060028204905060018216806127f557607f821691505b6020821081141561280957612808612918565b5b50919050565b61281882612976565b810181811067ffffffffffffffff8211171561283757612836612947565b5b80604052505050565b600061284b82612791565b91507fffffffffffffffffffffffffffffffffffffffffffffffffffffffffffffffff82141561287e5761287d6128ba565b5b600182019050919050565b600061289482612791565b915061289f83612791565b9250826128af576128ae6128e9565b5b828206905092915050565b7f4e487b7100000000000000000000000000000000000000000000000000000000600052601160045260246000fd5b7f4e487b7100000000000000000000000000000000000000000000000000000000600052601260045260246000fd5b7f4e487b7100000000000000000000000000000000000000000000000000000000600052602260045260246000fd5b7f4e487b7100000000000000000000000000000000000000000000000000000000600052604160045260246000fd5b6000601f19601f8301169050919050565b7f4f776e61626c653a206e6577206f776e657220697320746865207a65726f206160008201527f6464726573730000000000000000000000000000000000000000000000000000602082015250565b7f4f776e61626c653a2063616c6c6572206973206e6f7420746865206f776e6572600082015250565b7f456163682061646472657373206d6179206f6e6c79206d696e742078204e465460008201527f7321000000000000000000000000000000000000000000000000000000000000602082015250565b7f4552433732314d657461646174613a2055524920717565727920666f72206e6f60008201527f6e6578697374656e7420746f6b656e0000000000000000000000000000000000602082015250565b7f4e6f7420656e6f756768204554482073656e743b20636865636b20707269636560008201527f2100000000000000000000000000000000000000000000000000000000000000602082015250565b612af581612727565b8114612b0057600080fd5b50565b612b0c81612739565b8114612b1757600080fd5b50565b612b2381612745565b8114612b2e57600080fd5b50565b612b3a81612791565b8114612b4557600080fd5b5056fe697066733a2f2f516d636d4e6b416647544c636e6e51683631444e4476785666684e646f3566357a4b31674658654576436e4531422f697066733a2f2f516d53457048757258546a346738444b4d594e686847716e4466393379474c706962635936324178677445444a6e2fa2646970667358221220331c44cbe4b9c1e8a3fcdd9948ca83e331005a7c4aff94aaf23759810eee6b5964736f6c63430008040033",
  "linkReferences": {},
  "deployedLinkReferences": {}
}