{
  "_format": "hh-sol-artifact-1",
  "contractName": "NFT",
  "sourceName": "src/backend/contracts/NFT.sol",
  "abi": [
    {
      "inputs": [
        {
          "internalType": "address",
          "name": "recipient",
          "type": "address"
        }
      ],
      "stateMutability": "nonpayable",
      "type": "constructor"
    },
    {
      "anonymous": false,
      "inputs": [
        {
          "indexed": true,
          "internalType": "address",
          "name": "owner",
          "type": "address"
        },
        {
          "indexed": true,
          "internalType": "address",
          "name": "approved",
          "type": "address"
        },
        {
          "indexed": true,
          "internalType": "uint256",
          "name": "tokenId",
          "type": "uint256"
        }
      ],
      "name": "Approval",
      "type": "event"
    },
    {
      "anonymous": false,
      "inputs": [
        {
          "indexed": true,
          "internalType": "address",
          "name": "owner",
          "type": "address"
        },
        {
          "indexed": true,
          "internalType": "address",
          "name": "operator",
          "type": "address"
        },
        {
          "indexed": false,
          "internalType": "bool",
          "name": "approved",
          "type": "bool"
        }
      ],
      "name": "ApprovalForAll",
      "type": "event"
    },
    {
      "anonymous": false,
      "inputs": [
        {
          "indexed": true,
          "internalType": "address",
          "name": "previousOwner",
          "type": "address"
        },
        {
          "indexed": true,
          "internalType": "address",
          "name": "newOwner",
          "type": "address"
        }
      ],
      "name": "OwnershipTransferred",
      "type": "event"
    },
    {
      "anonymous": false,
      "inputs": [
        {
          "indexed": true,
          "internalType": "address",
          "name": "from",
          "type": "address"
        },
        {
          "indexed": true,
          "internalType": "address",
          "name": "to",
          "type": "address"
        },
        {
          "indexed": true,
          "internalType": "uint256",
          "name": "tokenId",
          "type": "uint256"
        }
      ],
      "name": "Transfer",
      "type": "event"
    },
    {
      "inputs": [],
      "name": "amountMintPerAccount",
      "outputs": [
        {
          "internalType": "uint256",
          "name": "",
          "type": "uint256"
        }
      ],
      "stateMutability": "view",
      "type": "function"
    },
    {
      "inputs": [
        {
          "internalType": "address",
          "name": "to",
          "type": "address"
        },
        {
          "internalType": "uint256",
          "name": "tokenId",
          "type": "uint256"
        }
      ],
      "name": "approve",
      "outputs": [],
      "stateMutability": "nonpayable",
      "type": "function"
    },
    {
      "inputs": [
        {
          "internalType": "address",
          "name": "owner",
          "type": "address"
        }
      ],
      "name": "balanceOf",
      "outputs": [
        {
          "internalType": "uint256",
          "name": "",
          "type": "uint256"
        }
      ],
      "stateMutability": "view",
      "type": "function"
    },
    {
      "inputs": [],
      "name": "baseTokenURI",
      "outputs": [
        {
          "internalType": "string",
          "name": "",
          "type": "string"
        }
      ],
      "stateMutability": "pure",
      "type": "function"
    },
    {
      "inputs": [],
      "name": "contractURI",
      "outputs": [
        {
          "internalType": "string",
          "name": "",
          "type": "string"
        }
      ],
      "stateMutability": "pure",
      "type": "function"
    },
    {
      "inputs": [
        {
          "internalType": "uint256",
          "name": "tokenId",
          "type": "uint256"
        }
      ],
      "name": "getApproved",
      "outputs": [
        {
          "internalType": "address",
          "name": "",
          "type": "address"
        }
      ],
      "stateMutability": "view",
      "type": "function"
    },
    {
      "inputs": [],
      "name": "getPrice",
      "outputs": [
        {
          "internalType": "uint256",
          "name": "",
          "type": "uint256"
        }
      ],
      "stateMutability": "view",
      "type": "function"
    },
    {
      "inputs": [
        {
          "internalType": "address",
          "name": "owner",
          "type": "address"
        },
        {
          "internalType": "address",
          "name": "operator",
          "type": "address"
        }
      ],
      "name": "isApprovedForAll",
      "outputs": [
        {
          "internalType": "bool",
          "name": "",
          "type": "bool"
        }
      ],
      "stateMutability": "view",
      "type": "function"
    },
    {
      "inputs": [
        {
          "internalType": "address",
          "name": "_user",
          "type": "address"
        }
      ],
      "name": "isWhitelisted",
      "outputs": [
        {
          "internalType": "bool",
          "name": "",
          "type": "bool"
        }
      ],
      "stateMutability": "view",
      "type": "function"
    },
    {
      "inputs": [
        {
          "internalType": "address",
          "name": "_user",
          "type": "address"
        }
      ],
      "name": "isWhitelistedFreeMint",
      "outputs": [
        {
          "internalType": "bool",
          "name": "",
          "type": "bool"
        }
      ],
      "stateMutability": "view",
      "type": "function"
    },
    {
      "inputs": [],
      "name": "max_supply",
      "outputs": [
        {
          "internalType": "uint256",
          "name": "",
          "type": "uint256"
        }
      ],
      "stateMutability": "view",
      "type": "function"
    },
    {
      "inputs": [],
      "name": "mint",
      "outputs": [
        {
          "internalType": "uint256",
          "name": "",
          "type": "uint256"
        }
      ],
      "stateMutability": "payable",
      "type": "function"
    },
    {
      "inputs": [],
      "name": "name",
      "outputs": [
        {
          "internalType": "string",
          "name": "",
          "type": "string"
        }
      ],
      "stateMutability": "view",
      "type": "function"
    },
    {
      "inputs": [],
      "name": "owner",
      "outputs": [
        {
          "internalType": "address",
          "name": "",
          "type": "address"
        }
      ],
      "stateMutability": "view",
      "type": "function"
    },
    {
      "inputs": [
        {
          "internalType": "uint256",
          "name": "tokenId",
          "type": "uint256"
        }
      ],
      "name": "ownerOf",
      "outputs": [
        {
          "internalType": "address",
          "name": "",
          "type": "address"
        }
      ],
      "stateMutability": "view",
      "type": "function"
    },
    {
      "inputs": [],
      "name": "presale",
      "outputs": [
        {
          "internalType": "bool",
          "name": "",
          "type": "bool"
        }
      ],
      "stateMutability": "view",
      "type": "function"
    },
    {
      "inputs": [],
      "name": "renounceOwnership",
      "outputs": [],
      "stateMutability": "nonpayable",
      "type": "function"
    },
    {
      "inputs": [],
      "name": "revealCollection",
      "outputs": [],
      "stateMutability": "nonpayable",
      "type": "function"
    },
    {
      "inputs": [
        {
          "internalType": "uint256",
          "name": "_tokenId",
          "type": "uint256"
        },
        {
          "internalType": "uint256",
          "name": "_salePrice",
          "type": "uint256"
        }
      ],
      "name": "royaltyInfo",
      "outputs": [
        {
          "internalType": "address",
          "name": "receiver",
          "type": "address"
        },
        {
          "internalType": "uint256",
          "name": "royaltyAmount",
          "type": "uint256"
        }
      ],
      "stateMutability": "view",
      "type": "function"
    },
    {
      "inputs": [
        {
          "internalType": "address",
          "name": "from",
          "type": "address"
        },
        {
          "internalType": "address",
          "name": "to",
          "type": "address"
        },
        {
          "internalType": "uint256",
          "name": "tokenId",
          "type": "uint256"
        }
      ],
      "name": "safeTransferFrom",
      "outputs": [],
      "stateMutability": "nonpayable",
      "type": "function"
    },
    {
      "inputs": [
        {
          "internalType": "address",
          "name": "from",
          "type": "address"
        },
        {
          "internalType": "address",
          "name": "to",
          "type": "address"
        },
        {
          "internalType": "uint256",
          "name": "tokenId",
          "type": "uint256"
        },
        {
          "internalType": "bytes",
          "name": "_data",
          "type": "bytes"
        }
      ],
      "name": "safeTransferFrom",
      "outputs": [],
      "stateMutability": "nonpayable",
      "type": "function"
    },
    {
      "inputs": [
        {
          "internalType": "uint256",
          "name": "_amountMintPerAccount",
          "type": "uint256"
        }
      ],
      "name": "setAmountMintPerAccount",
      "outputs": [],
      "stateMutability": "nonpayable",
      "type": "function"
    },
    {
      "inputs": [
        {
          "internalType": "address",
          "name": "operator",
          "type": "address"
        },
        {
          "internalType": "bool",
          "name": "approved",
          "type": "bool"
        }
      ],
      "name": "setApprovalForAll",
      "outputs": [],
      "stateMutability": "nonpayable",
      "type": "function"
    },
    {
      "inputs": [
        {
          "internalType": "bool",
          "name": "_state",
          "type": "bool"
        }
      ],
      "name": "setPresaleEnabled",
      "outputs": [],
      "stateMutability": "nonpayable",
      "type": "function"
    },
    {
      "inputs": [
        {
          "internalType": "address",
          "name": "newRecipient",
          "type": "address"
        }
      ],
      "name": "setRoyalties",
      "outputs": [],
      "stateMutability": "nonpayable",
      "type": "function"
    },
    {
      "inputs": [
        {
          "internalType": "bool",
          "name": "_state",
          "type": "bool"
        }
      ],
      "name": "setWhitelistFreeMintEnabled",
      "outputs": [],
      "stateMutability": "nonpayable",
      "type": "function"
    },
    {
      "inputs": [
        {
          "internalType": "bool",
          "name": "_state",
          "type": "bool"
        }
      ],
      "name": "setWhitelistMintEnabled",
      "outputs": [],
      "stateMutability": "nonpayable",
      "type": "function"
    },
    {
      "inputs": [
        {
          "internalType": "bytes4",
          "name": "interfaceId",
          "type": "bytes4"
        }
      ],
      "name": "supportsInterface",
      "outputs": [
        {
          "internalType": "bool",
          "name": "",
          "type": "bool"
        }
      ],
      "stateMutability": "view",
      "type": "function"
    },
    {
      "inputs": [],
      "name": "symbol",
      "outputs": [
        {
          "internalType": "string",
          "name": "",
          "type": "string"
        }
      ],
      "stateMutability": "view",
      "type": "function"
    },
    {
      "inputs": [],
      "name": "tokenCount",
      "outputs": [
        {
          "internalType": "uint256",
          "name": "",
          "type": "uint256"
        }
      ],
      "stateMutability": "view",
      "type": "function"
    },
    {
      "inputs": [
        {
          "internalType": "uint256",
          "name": "_tokenId",
          "type": "uint256"
        }
      ],
      "name": "tokenURI",
      "outputs": [
        {
          "internalType": "string",
          "name": "",
          "type": "string"
        }
      ],
      "stateMutability": "view",
      "type": "function"
    },
    {
      "inputs": [],
      "name": "totalSupply",
      "outputs": [
        {
          "internalType": "uint256",
          "name": "",
          "type": "uint256"
        }
      ],
      "stateMutability": "view",
      "type": "function"
    },
    {
      "inputs": [
        {
          "internalType": "address",
          "name": "from",
          "type": "address"
        },
        {
          "internalType": "address",
          "name": "to",
          "type": "address"
        },
        {
          "internalType": "uint256",
          "name": "tokenId",
          "type": "uint256"
        }
      ],
      "name": "transferFrom",
      "outputs": [],
      "stateMutability": "nonpayable",
      "type": "function"
    },
    {
      "inputs": [
        {
          "internalType": "address",
          "name": "newOwner",
          "type": "address"
        }
      ],
      "name": "transferOwnership",
      "outputs": [],
      "stateMutability": "nonpayable",
      "type": "function"
    },
    {
      "inputs": [],
      "name": "uriPrefix",
      "outputs": [
        {
          "internalType": "string",
          "name": "",
          "type": "string"
        }
      ],
      "stateMutability": "view",
      "type": "function"
    },
    {
      "inputs": [],
      "name": "uriSuffix",
      "outputs": [
        {
          "internalType": "string",
          "name": "",
          "type": "string"
        }
      ],
      "stateMutability": "view",
      "type": "function"
    },
    {
      "inputs": [],
      "name": "whitelistFreeMintEnabled",
      "outputs": [
        {
          "internalType": "bool",
          "name": "",
          "type": "bool"
        }
      ],
      "stateMutability": "view",
      "type": "function"
    },
    {
      "inputs": [],
      "name": "whitelistMintEnabled",
      "outputs": [
        {
          "internalType": "bool",
          "name": "",
          "type": "bool"
        }
      ],
      "stateMutability": "view",
      "type": "function"
    },
    {
      "inputs": [
        {
          "internalType": "address[]",
          "name": "_users",
          "type": "address[]"
        }
      ],
      "name": "whitelistUsers",
      "outputs": [],
      "stateMutability": "nonpayable",
      "type": "function"
    },
    {
      "inputs": [
        {
          "internalType": "address[]",
          "name": "_users",
          "type": "address[]"
        }
      ],
      "name": "whitelistUsersFreeMint",
      "outputs": [],
      "stateMutability": "nonpayable",
      "type": "function"
    },
    {
      "inputs": [
        {
          "internalType": "uint256",
          "name": "",
          "type": "uint256"
        }
      ],
      "name": "whitelistedAddresses",
      "outputs": [
        {
          "internalType": "address",
          "name": "",
          "type": "address"
        }
      ],
      "stateMutability": "view",
      "type": "function"
    },
    {
      "inputs": [
        {
          "internalType": "uint256",
          "name": "",
          "type": "uint256"
        }
      ],
      "name": "whitelistedAddressesFreeMint",
      "outputs": [
        {
          "internalType": "address",
          "name": "",
          "type": "address"
        }
      ],
      "stateMutability": "view",
      "type": "function"
    }
  ],
  "bytecode": "0x608060405260405180602001604052806000815250600890805190602001906200002b929190620003e4565b506040518060400160405280600581526020017f2e6a736f6e0000000000000000000000000000000000000000000000000000008152506009908051906020019062000079929190620003e4565b506005600c556001600d60146101000a81548160ff0219169083151502179055506001600d60156101000a81548160ff0219169083151502179055506001600d60166101000a81548160ff0219169083151502179055506000601060006101000a81548160ff02191690831515021790555060405180606001604052806035815260200162004b0260359139601190805190602001906200011c929190620003e4565b503480156200012a57600080fd5b5060405162004b3738038062004b378339818101604052810190620001509190620004ab565b6040518060400160405280600e81526020017f536b6f6f646c6520536b756c6c730000000000000000000000000000000000008152506040518060400160405280600381526020017f534b5300000000000000000000000000000000000000000000000000000000008152508160009080519060200190620001d4929190620003e4565b508060019080519060200190620001ed929190620003e4565b5050506200021062000204620002ec60201b60201c565b620002f460201b60201c565b610fa0600b819055508073ffffffffffffffffffffffffffffffffffffffff168173ffffffffffffffffffffffffffffffffffffffff1614620002a3576200025d620003ba60201b60201c565b600d60006101000a81548173ffffffffffffffffffffffffffffffffffffffff021916908373ffffffffffffffffffffffffffffffffffffffff160217905550620002e5565b80600d60006101000a81548173ffffffffffffffffffffffffffffffffffffffff021916908373ffffffffffffffffffffffffffffffffffffffff1602179055505b506200058a565b600033905090565b6000600760009054906101000a900473ffffffffffffffffffffffffffffffffffffffff16905081600760006101000a81548173ffffffffffffffffffffffffffffffffffffffff021916908373ffffffffffffffffffffffffffffffffffffffff1602179055508173ffffffffffffffffffffffffffffffffffffffff168173ffffffffffffffffffffffffffffffffffffffff167f8be0079c531659141344cd1fd0a4f28419497f9722a3daafe3b4186f6b6457e060405160405180910390a35050565b6000600760009054906101000a900473ffffffffffffffffffffffffffffffffffffffff16905090565b828054620003f2906200050b565b90600052602060002090601f01602090048101928262000416576000855562000462565b82601f106200043157805160ff191683800117855562000462565b8280016001018555821562000462579182015b828111156200046157825182559160200191906001019062000444565b5b50905062000471919062000475565b5090565b5b808211156200049057600081600090555060010162000476565b5090565b600081519050620004a58162000570565b92915050565b600060208284031215620004be57600080fd5b6000620004ce8482850162000494565b91505092915050565b6000620004e482620004eb565b9050919050565b600073ffffffffffffffffffffffffffffffffffffffff82169050919050565b600060028204905060018216806200052457607f821691505b602082108114156200053b576200053a62000541565b5b50919050565b7f4e487b7100000000000000000000000000000000000000000000000000000000600052602260045260246000fd5b6200057b81620004d7565b81146200058757600080fd5b50565b614568806200059a6000396000f3fe6080604052600436106102515760003560e01c80638a333b5011610139578063ba4e5c49116100b6578063e8a3d4851161007a578063e8a3d485146108ba578063e985e9c5146108e5578063edec5f2714610922578063f2fde38b1461094b578063fdea8e0b14610974578063fe092fb61461099f57610251565b8063ba4e5c49146107c3578063c10225b814610800578063c4026f9514610829578063c87b56dd14610852578063d547cfb71461088f57610251565b80639f181b5e116100fd5780639f181b5e146106f2578063a22cb4651461071d578063a827b5ff14610746578063b767a09814610771578063b88d4fde1461079a57610251565b80638a333b501461061b5780638da5cb5b14610646578063919916a21461067157806395d89b411461069c57806398d5fdca146106c757610251565b80632a55205a116101d25780635503a0e8116101965780635503a0e81461050957806362b99ad4146105345780636352211e1461055f5780636caede3d1461059c57806370a08231146105c7578063715018a61461060457610251565b80632a55205a146104255780632a9e63c6146104635780633af32abf1461048c57806340d0b4a9146104c957806342842e0e146104e057610251565b8063102eeb2311610219578063102eeb231461034d578063112966601461038a5780631249c58b146103b357806318160ddd146103d157806323b872dd146103fc57610251565b806301ffc9a71461025657806306fdde0314610293578063081812fc146102be578063095ea7b3146102fb57806309adc8d014610324575b600080fd5b34801561026257600080fd5b5061027d600480360381019061027891906131c6565b6109dc565b60405161028a919061376c565b60405180910390f35b34801561029f57600080fd5b506102a8610abe565b6040516102b59190613787565b60405180910390f35b3480156102ca57600080fd5b506102e560048036038101906102e09190613218565b610b50565b6040516102f291906136dc565b60405180910390f35b34801561030757600080fd5b50610322600480360381019061031d919061311c565b610bd5565b005b34801561033057600080fd5b5061034b6004803603810190610346919061319d565b610ced565b005b34801561035957600080fd5b50610374600480360381019061036f9190612fb1565b610d86565b604051610381919061376c565b60405180910390f35b34801561039657600080fd5b506103b160048036038101906103ac9190613218565b610e5b565b005b6103bb610ee1565b6040516103c89190613a49565b60405180910390f35b3480156103dd57600080fd5b506103e6610fbd565b6040516103f39190613a49565b60405180910390f35b34801561040857600080fd5b50610423600480360381019061041e9190613016565b610fc7565b005b34801561043157600080fd5b5061044c60048036038101906104479190613241565b611027565b60405161045a929190613743565b60405180910390f35b34801561046f57600080fd5b5061048a60048036038101906104859190612fb1565b611073565b005b34801561049857600080fd5b506104b360048036038101906104ae9190612fb1565b6110fb565b6040516104c0919061376c565b60405180910390f35b3480156104d557600080fd5b506104de6111d0565b005b3480156104ec57600080fd5b5061050760048036038101906105029190613016565b6111ed565b005b34801561051557600080fd5b5061051e61120d565b60405161052b9190613787565b60405180910390f35b34801561054057600080fd5b5061054961129b565b6040516105569190613787565b60405180910390f35b34801561056b57600080fd5b5061058660048036038101906105819190613218565b611329565b60405161059391906136dc565b60405180910390f35b3480156105a857600080fd5b506105b16113db565b6040516105be919061376c565b60405180910390f35b3480156105d357600080fd5b506105ee60048036038101906105e99190612fb1565b6113ee565b6040516105fb9190613a49565b60405180910390f35b34801561061057600080fd5b506106196114a6565b005b34801561062757600080fd5b5061063061152e565b60405161063d9190613a49565b60405180910390f35b34801561065257600080fd5b5061065b611534565b60405161066891906136dc565b60405180910390f35b34801561067d57600080fd5b5061068661155e565b604051610693919061376c565b60405180910390f35b3480156106a857600080fd5b506106b1611571565b6040516106be9190613787565b60405180910390f35b3480156106d357600080fd5b506106dc611603565b6040516106e99190613a49565b60405180910390f35b3480156106fe57600080fd5b506107076116ec565b6040516107149190613a49565b60405180910390f35b34801561072957600080fd5b50610744600480360381019061073f91906130e0565b6116f2565b005b34801561075257600080fd5b5061075b611708565b6040516107689190613a49565b60405180910390f35b34801561077d57600080fd5b506107986004803603810190610793919061319d565b61170e565b005b3480156107a657600080fd5b506107c160048036038101906107bc9190613065565b6117a7565b005b3480156107cf57600080fd5b506107ea60048036038101906107e59190613218565b611809565b6040516107f791906136dc565b60405180910390f35b34801561080c57600080fd5b506108276004803603810190610822919061319d565b611848565b005b34801561083557600080fd5b50610850600480360381019061084b9190613158565b6118e1565b005b34801561085e57600080fd5b5061087960048036038101906108749190613218565b611981565b6040516108869190613787565b60405180910390f35b34801561089b57600080fd5b506108a4611b2c565b6040516108b19190613787565b60405180910390f35b3480156108c657600080fd5b506108cf611b3b565b6040516108dc9190613787565b60405180910390f35b3480156108f157600080fd5b5061090c60048036038101906109079190612fda565b611b5b565b604051610919919061376c565b60405180910390f35b34801561092e57600080fd5b5061094960048036038101906109449190613158565b611bef565b005b34801561095757600080fd5b50610972600480360381019061096d9190612fb1565b611c8f565b005b34801561098057600080fd5b50610989611d87565b604051610996919061376c565b60405180910390f35b3480156109ab57600080fd5b506109c660048036038101906109c19190613218565b611d9a565b6040516109d391906136dc565b60405180910390f35b60007fc87b56dd000000000000000000000000000000000000000000000000000000007bffffffffffffffffffffffffffffffffffffffffffffffffffffffff1916827bffffffffffffffffffffffffffffffffffffffffffffffffffffffff19161480610aa757507f2a55205a000000000000000000000000000000000000000000000000000000007bffffffffffffffffffffffffffffffffffffffffffffffffffffffff1916827bffffffffffffffffffffffffffffffffffffffffffffffffffffffff1916145b80610ab75750610ab682611dd9565b5b9050919050565b606060008054610acd90613cdd565b80601f0160208091040260200160405190810160405280929190818152602001828054610af990613cdd565b8015610b465780601f10610b1b57610100808354040283529160200191610b46565b820191906000526020600020905b815481529060010190602001808311610b2957829003601f168201915b5050505050905090565b6000610b5b82611ebb565b610b9a576040517f08c379a0000000000000000000000000000000000000000000000000000000008152600401610b9190613929565b60405180910390fd5b6004600083815260200190815260200160002060009054906101000a900473ffffffffffffffffffffffffffffffffffffffff169050919050565b6000610be082611329565b90508073ffffffffffffffffffffffffffffffffffffffff168373ffffffffffffffffffffffffffffffffffffffff161415610c51576040517f08c379a0000000000000000000000000000000000000000000000000000000008152600401610c48906139a9565b60405180910390fd5b8073ffffffffffffffffffffffffffffffffffffffff16610c70611f27565b73ffffffffffffffffffffffffffffffffffffffff161480610c9f5750610c9e81610c99611f27565b611b5b565b5b610cde576040517f08c379a0000000000000000000000000000000000000000000000000000000008152600401610cd590613889565b60405180910390fd5b610ce88383611f2f565b505050565b610cf5611f27565b73ffffffffffffffffffffffffffffffffffffffff16610d13611534565b73ffffffffffffffffffffffffffffffffffffffff1614610d69576040517f08c379a0000000000000000000000000000000000000000000000000000000008152600401610d6090613949565b60405180910390fd5b80600d60166101000a81548160ff02191690831515021790555050565b600080600090505b600f80549050811015610e50578273ffffffffffffffffffffffffffffffffffffffff16600f8281548110610dec577f4e487b7100000000000000000000000000000000000000000000000000000000600052603260045260246000fd5b9060005260206000200160009054906101000a900473ffffffffffffffffffffffffffffffffffffffff1673ffffffffffffffffffffffffffffffffffffffff161415610e3d576001915050610e56565b8080610e4890613d40565b915050610d8e565b50600090505b919050565b610e63611f27565b73ffffffffffffffffffffffffffffffffffffffff16610e81611534565b73ffffffffffffffffffffffffffffffffffffffff1614610ed7576040517f08c379a0000000000000000000000000000000000000000000000000000000008152600401610ece90613949565b60405180910390fd5b80600c8190555050565b6000610eeb611603565b341015610f2d576040517f08c379a0000000000000000000000000000000000000000000000000000000008152600401610f2490613a09565b60405180910390fd5b600c54610f39336113ee565b10610f79576040517f08c379a0000000000000000000000000000000000000000000000000000000008152600401610f7090613969565b60405180910390fd5b6001600a6000828254610f8c9190613b12565b92505081905550610f9f33600a54611fe8565b610fb5600a54610fb0600a54611981565b612006565b600a54905090565b6000600a54905090565b610fd8610fd2611f27565b8261207a565b611017576040517f08c379a000000000000000000000000000000000000000000000000000000000815260040161100e906139e9565b60405180910390fd5b611022838383612158565b505050565b600080600d60009054906101000a900473ffffffffffffffffffffffffffffffffffffffff166127106101f48561105e9190613b99565b6110689190613b68565b915091509250929050565b61107b611f27565b73ffffffffffffffffffffffffffffffffffffffff16611099611534565b73ffffffffffffffffffffffffffffffffffffffff16146110ef576040517f08c379a00000000000000000000000000000000000000000000000000000000081526004016110e690613949565b60405180910390fd5b6110f8816123bf565b50565b600080600090505b600e805490508110156111c5578273ffffffffffffffffffffffffffffffffffffffff16600e8281548110611161577f4e487b7100000000000000000000000000000000000000000000000000000000600052603260045260246000fd5b9060005260206000200160009054906101000a900473ffffffffffffffffffffffffffffffffffffffff1673ffffffffffffffffffffffffffffffffffffffff1614156111b25760019150506111cb565b80806111bd90613d40565b915050611103565b50600090505b919050565b6001601060006101000a81548160ff021916908315150217905550565b611208838383604051806020016040528060008152506117a7565b505050565b6009805461121a90613cdd565b80601f016020809104026020016040519081016040528092919081815260200182805461124690613cdd565b80156112935780601f1061126857610100808354040283529160200191611293565b820191906000526020600020905b81548152906001019060200180831161127657829003601f168201915b505050505081565b600880546112a890613cdd565b80601f01602080910402602001604051908101604052809291908181526020018280546112d490613cdd565b80156113215780601f106112f657610100808354040283529160200191611321565b820191906000526020600020905b81548152906001019060200180831161130457829003601f168201915b505050505081565b6000806002600084815260200190815260200160002060009054906101000a900473ffffffffffffffffffffffffffffffffffffffff169050600073ffffffffffffffffffffffffffffffffffffffff168173ffffffffffffffffffffffffffffffffffffffff1614156113d2576040517f08c379a00000000000000000000000000000000000000000000000000000000081526004016113c9906138c9565b60405180910390fd5b80915050919050565b600d60159054906101000a900460ff1681565b60008073ffffffffffffffffffffffffffffffffffffffff168273ffffffffffffffffffffffffffffffffffffffff16141561145f576040517f08c379a0000000000000000000000000000000000000000000000000000000008152600401611456906138a9565b60405180910390fd5b600360008373ffffffffffffffffffffffffffffffffffffffff1673ffffffffffffffffffffffffffffffffffffffff168152602001908152602001600020549050919050565b6114ae611f27565b73ffffffffffffffffffffffffffffffffffffffff166114cc611534565b73ffffffffffffffffffffffffffffffffffffffff1614611522576040517f08c379a000000000000000000000000000000000000000000000000000000000815260040161151990613949565b60405180910390fd5b61152c6000612473565b565b600b5481565b6000600760009054906101000a900473ffffffffffffffffffffffffffffffffffffffff16905090565b600d60169054906101000a900460ff1681565b60606001805461158090613cdd565b80601f01602080910402602001604051908101604052809291908181526020018280546115ac90613cdd565b80156115f95780601f106115ce576101008083540402835291602001916115f9565b820191906000526020600020905b8154815290600101906020018083116115dc57829003601f168201915b5050505050905090565b600061160d611534565b73ffffffffffffffffffffffffffffffffffffffff163373ffffffffffffffffffffffffffffffffffffffff16146116e45760011515600d60169054906101000a900460ff161515148015611667575061166633610d86565b5b1561167557600090506116e9565b60011515600d60159054906101000a900460ff16151514801561169d575061169c336110fb565b5b156116b15766470de4df82000090506116e9565b600d60149054906101000a900460ff16156116d557668e1bc9bf04000090506116e9565b66b1a2bc2ec5000090506116e9565b600090505b90565b600a5481565b6117046116fd611f27565b8383612539565b5050565b600c5481565b611716611f27565b73ffffffffffffffffffffffffffffffffffffffff16611734611534565b73ffffffffffffffffffffffffffffffffffffffff161461178a576040517f08c379a000000000000000000000000000000000000000000000000000000000815260040161178190613949565b60405180910390fd5b80600d60156101000a81548160ff02191690831515021790555050565b6117b86117b2611f27565b8361207a565b6117f7576040517f08c379a00000000000000000000000000000000000000000000000000000000081526004016117ee906139e9565b60405180910390fd5b611803848484846126a6565b50505050565b600e818154811061181957600080fd5b906000526020600020016000915054906101000a900473ffffffffffffffffffffffffffffffffffffffff1681565b611850611f27565b73ffffffffffffffffffffffffffffffffffffffff1661186e611534565b73ffffffffffffffffffffffffffffffffffffffff16146118c4576040517f08c379a00000000000000000000000000000000000000000000000000000000081526004016118bb90613949565b60405180910390fd5b80600d60146101000a81548160ff02191690831515021790555050565b6118e9611f27565b73ffffffffffffffffffffffffffffffffffffffff16611907611534565b73ffffffffffffffffffffffffffffffffffffffff161461195d576040517f08c379a000000000000000000000000000000000000000000000000000000000815260040161195490613949565b60405180910390fd5b600f600061196b9190612d32565b8181600f919061197c929190612d53565b505050565b606061198c82611ebb565b6119cb576040517f08c379a00000000000000000000000000000000000000000000000000000000081526004016119c290613989565b60405180910390fd5b600182101580156119de5750600b548211155b611a1d576040517f08c379a0000000000000000000000000000000000000000000000000000000008152600401611a1490613a29565b60405180910390fd5b60001515601060009054906101000a900460ff1615151415611acb5760118054611a4690613cdd565b80601f0160208091040260200160405190810160405280929190818152602001828054611a7290613cdd565b8015611abf5780601f10611a9457610100808354040283529160200191611abf565b820191906000526020600020905b815481529060010190602001808311611aa257829003601f168201915b50505050509050611b27565b6000611ad5612702565b90506000815111611af55760405180602001604052806000815250611b23565b80611aff84612722565b6009604051602001611b13939291906136ab565b6040516020818303038152906040525b9150505b919050565b6060611b36612702565b905090565b60606040518060600160405280603681526020016144fd60369139905090565b6000600560008473ffffffffffffffffffffffffffffffffffffffff1673ffffffffffffffffffffffffffffffffffffffff16815260200190815260200160002060008373ffffffffffffffffffffffffffffffffffffffff1673ffffffffffffffffffffffffffffffffffffffff16815260200190815260200160002060009054906101000a900460ff16905092915050565b611bf7611f27565b73ffffffffffffffffffffffffffffffffffffffff16611c15611534565b73ffffffffffffffffffffffffffffffffffffffff1614611c6b576040517f08c379a0000000000000000000000000000000000000000000000000000000008152600401611c6290613949565b60405180910390fd5b600e6000611c799190612d32565b8181600e9190611c8a929190612d53565b505050565b611c97611f27565b73ffffffffffffffffffffffffffffffffffffffff16611cb5611534565b73ffffffffffffffffffffffffffffffffffffffff1614611d0b576040517f08c379a0000000000000000000000000000000000000000000000000000000008152600401611d0290613949565b60405180910390fd5b600073ffffffffffffffffffffffffffffffffffffffff168173ffffffffffffffffffffffffffffffffffffffff161415611d7b576040517f08c379a0000000000000000000000000000000000000000000000000000000008152600401611d72906137c9565b60405180910390fd5b611d8481612473565b50565b600d60149054906101000a900460ff1681565b600f8181548110611daa57600080fd5b906000526020600020016000915054906101000a900473ffffffffffffffffffffffffffffffffffffffff1681565b60007f80ac58cd000000000000000000000000000000000000000000000000000000007bffffffffffffffffffffffffffffffffffffffffffffffffffffffff1916827bffffffffffffffffffffffffffffffffffffffffffffffffffffffff19161480611ea457507f5b5e139f000000000000000000000000000000000000000000000000000000007bffffffffffffffffffffffffffffffffffffffffffffffffffffffff1916827bffffffffffffffffffffffffffffffffffffffffffffffffffffffff1916145b80611eb45750611eb3826128cf565b5b9050919050565b60008073ffffffffffffffffffffffffffffffffffffffff166002600084815260200190815260200160002060009054906101000a900473ffffffffffffffffffffffffffffffffffffffff1673ffffffffffffffffffffffffffffffffffffffff1614159050919050565b600033905090565b816004600083815260200190815260200160002060006101000a81548173ffffffffffffffffffffffffffffffffffffffff021916908373ffffffffffffffffffffffffffffffffffffffff160217905550808273ffffffffffffffffffffffffffffffffffffffff16611fa283611329565b73ffffffffffffffffffffffffffffffffffffffff167f8c5be1e5ebec7d5bd14f71427d1e84f3dd0314c0f7b2291e5b200ac8c7c3b92560405160405180910390a45050565b612002828260405180602001604052806000815250612939565b5050565b61200f82611ebb565b61204e576040517f08c379a0000000000000000000000000000000000000000000000000000000008152600401612045906138e9565b60405180910390fd5b80600660008481526020019081526020016000209080519060200190612075929190612df3565b505050565b600061208582611ebb565b6120c4576040517f08c379a00000000000000000000000000000000000000000000000000000000081526004016120bb90613869565b60405180910390fd5b60006120cf83611329565b90508073ffffffffffffffffffffffffffffffffffffffff168473ffffffffffffffffffffffffffffffffffffffff16148061213e57508373ffffffffffffffffffffffffffffffffffffffff1661212684610b50565b73ffffffffffffffffffffffffffffffffffffffff16145b8061214f575061214e8185611b5b565b5b91505092915050565b8273ffffffffffffffffffffffffffffffffffffffff1661217882611329565b73ffffffffffffffffffffffffffffffffffffffff16146121ce576040517f08c379a00000000000000000000000000000000000000000000000000000000081526004016121c5906137e9565b60405180910390fd5b600073ffffffffffffffffffffffffffffffffffffffff168273ffffffffffffffffffffffffffffffffffffffff16141561223e576040517f08c379a000000000000000000000000000000000000000000000000000000000815260040161223590613829565b60405180910390fd5b612249838383612994565b612254600082611f2f565b6001600360008573ffffffffffffffffffffffffffffffffffffffff1673ffffffffffffffffffffffffffffffffffffffff16815260200190815260200160002060008282546122a49190613bf3565b925050819055506001600360008473ffffffffffffffffffffffffffffffffffffffff1673ffffffffffffffffffffffffffffffffffffffff16815260200190815260200160002060008282546122fb9190613b12565b92505081905550816002600083815260200190815260200160002060006101000a81548173ffffffffffffffffffffffffffffffffffffffff021916908373ffffffffffffffffffffffffffffffffffffffff160217905550808273ffffffffffffffffffffffffffffffffffffffff168473ffffffffffffffffffffffffffffffffffffffff167fddf252ad1be2c89b69c2b068fc378daa952ba7f163c4a11628f55a4df523b3ef60405160405180910390a46123ba838383612999565b505050565b600073ffffffffffffffffffffffffffffffffffffffff168173ffffffffffffffffffffffffffffffffffffffff16141561242f576040517f08c379a0000000000000000000000000000000000000000000000000000000008152600401612426906139c9565b60405180910390fd5b80600d60006101000a81548173ffffffffffffffffffffffffffffffffffffffff021916908373ffffffffffffffffffffffffffffffffffffffff16021790555050565b6000600760009054906101000a900473ffffffffffffffffffffffffffffffffffffffff16905081600760006101000a81548173ffffffffffffffffffffffffffffffffffffffff021916908373ffffffffffffffffffffffffffffffffffffffff1602179055508173ffffffffffffffffffffffffffffffffffffffff168173ffffffffffffffffffffffffffffffffffffffff167f8be0079c531659141344cd1fd0a4f28419497f9722a3daafe3b4186f6b6457e060405160405180910390a35050565b8173ffffffffffffffffffffffffffffffffffffffff168373ffffffffffffffffffffffffffffffffffffffff1614156125a8576040517f08c379a000000000000000000000000000000000000000000000000000000000815260040161259f90613849565b60405180910390fd5b80600560008573ffffffffffffffffffffffffffffffffffffffff1673ffffffffffffffffffffffffffffffffffffffff16815260200190815260200160002060008473ffffffffffffffffffffffffffffffffffffffff1673ffffffffffffffffffffffffffffffffffffffff16815260200190815260200160002060006101000a81548160ff0219169083151502179055508173ffffffffffffffffffffffffffffffffffffffff168373ffffffffffffffffffffffffffffffffffffffff167f17307eab39ab6107e8899845ad3d59bd9653f200f220920489ca2b5937696c3183604051612699919061376c565b60405180910390a3505050565b6126b1848484612158565b6126bd8484848461299e565b6126fc576040517f08c379a00000000000000000000000000000000000000000000000000000000081526004016126f3906137a9565b60405180910390fd5b50505050565b60606040518060600160405280603681526020016144c760369139905090565b6060600082141561276a576040518060400160405280600181526020017f300000000000000000000000000000000000000000000000000000000000000081525090506128ca565b600082905060005b6000821461279c57808061278590613d40565b915050600a826127959190613b68565b9150612772565b60008167ffffffffffffffff8111156127de577f4e487b7100000000000000000000000000000000000000000000000000000000600052604160045260246000fd5b6040519080825280601f01601f1916602001820160405280156128105781602001600182028036833780820191505090505b5090505b600085146128c3576001826128299190613bf3565b9150600a856128389190613d89565b60306128449190613b12565b60f81b818381518110612880577f4e487b7100000000000000000000000000000000000000000000000000000000600052603260045260246000fd5b60200101907effffffffffffffffffffffffffffffffffffffffffffffffffffffffffffff1916908160001a905350600a856128bc9190613b68565b9450612814565b8093505050505b919050565b60007f01ffc9a7000000000000000000000000000000000000000000000000000000007bffffffffffffffffffffffffffffffffffffffffffffffffffffffff1916827bffffffffffffffffffffffffffffffffffffffffffffffffffffffff1916149050919050565b6129438383612b35565b612950600084848461299e565b61298f576040517f08c379a0000000000000000000000000000000000000000000000000000000008152600401612986906137a9565b60405180910390fd5b505050565b505050565b505050565b60006129bf8473ffffffffffffffffffffffffffffffffffffffff16612d0f565b15612b28578373ffffffffffffffffffffffffffffffffffffffff1663150b7a026129e8611f27565b8786866040518563ffffffff1660e01b8152600401612a0a94939291906136f7565b602060405180830381600087803b158015612a2457600080fd5b505af1925050508015612a5557506040513d601f19601f82011682018060405250810190612a5291906131ef565b60015b612ad8573d8060008114612a85576040519150601f19603f3d011682016040523d82523d6000602084013e612a8a565b606091505b50600081511415612ad0576040517f08c379a0000000000000000000000000000000000000000000000000000000008152600401612ac7906137a9565b60405180910390fd5b805181602001fd5b63150b7a0260e01b7bffffffffffffffffffffffffffffffffffffffffffffffffffffffff1916817bffffffffffffffffffffffffffffffffffffffffffffffffffffffff191614915050612b2d565b600190505b949350505050565b600073ffffffffffffffffffffffffffffffffffffffff168273ffffffffffffffffffffffffffffffffffffffff161415612ba5576040517f08c379a0000000000000000000000000000000000000000000000000000000008152600401612b9c90613909565b60405180910390fd5b612bae81611ebb565b15612bee576040517f08c379a0000000000000000000000000000000000000000000000000000000008152600401612be590613809565b60405180910390fd5b612bfa60008383612994565b6001600360008473ffffffffffffffffffffffffffffffffffffffff1673ffffffffffffffffffffffffffffffffffffffff1681526020019081526020016000206000828254612c4a9190613b12565b92505081905550816002600083815260200190815260200160002060006101000a81548173ffffffffffffffffffffffffffffffffffffffff021916908373ffffffffffffffffffffffffffffffffffffffff160217905550808273ffffffffffffffffffffffffffffffffffffffff16600073ffffffffffffffffffffffffffffffffffffffff167fddf252ad1be2c89b69c2b068fc378daa952ba7f163c4a11628f55a4df523b3ef60405160405180910390a4612d0b60008383612999565b5050565b6000808273ffffffffffffffffffffffffffffffffffffffff163b119050919050565b5080546000825590600052602060002090810190612d509190612e79565b50565b828054828255906000526020600020908101928215612de2579160200282015b82811115612de157823573ffffffffffffffffffffffffffffffffffffffff168260006101000a81548173ffffffffffffffffffffffffffffffffffffffff021916908373ffffffffffffffffffffffffffffffffffffffff16021790555091602001919060010190612d73565b5b509050612def9190612e79565b5090565b828054612dff90613cdd565b90600052602060002090601f016020900481019282612e215760008555612e68565b82601f10612e3a57805160ff1916838001178555612e68565b82800160010185558215612e68579182015b82811115612e67578251825591602001919060010190612e4c565b5b509050612e759190612e79565b5090565b5b80821115612e92576000816000905550600101612e7a565b5090565b6000612ea9612ea484613a89565b613a64565b905082815260208101848484011115612ec157600080fd5b612ecc848285613c9b565b509392505050565b600081359050612ee38161446a565b92915050565b60008083601f840112612efb57600080fd5b8235905067ffffffffffffffff811115612f1457600080fd5b602083019150836020820283011115612f2c57600080fd5b9250929050565b600081359050612f4281614481565b92915050565b600081359050612f5781614498565b92915050565b600081519050612f6c81614498565b92915050565b600082601f830112612f8357600080fd5b8135612f93848260208601612e96565b91505092915050565b600081359050612fab816144af565b92915050565b600060208284031215612fc357600080fd5b6000612fd184828501612ed4565b91505092915050565b60008060408385031215612fed57600080fd5b6000612ffb85828601612ed4565b925050602061300c85828601612ed4565b9150509250929050565b60008060006060848603121561302b57600080fd5b600061303986828701612ed4565b935050602061304a86828701612ed4565b925050604061305b86828701612f9c565b9150509250925092565b6000806000806080858703121561307b57600080fd5b600061308987828801612ed4565b945050602061309a87828801612ed4565b93505060406130ab87828801612f9c565b925050606085013567ffffffffffffffff8111156130c857600080fd5b6130d487828801612f72565b91505092959194509250565b600080604083850312156130f357600080fd5b600061310185828601612ed4565b925050602061311285828601612f33565b9150509250929050565b6000806040838503121561312f57600080fd5b600061313d85828601612ed4565b925050602061314e85828601612f9c565b9150509250929050565b6000806020838503121561316b57600080fd5b600083013567ffffffffffffffff81111561318557600080fd5b61319185828601612ee9565b92509250509250929050565b6000602082840312156131af57600080fd5b60006131bd84828501612f33565b91505092915050565b6000602082840312156131d857600080fd5b60006131e684828501612f48565b91505092915050565b60006020828403121561320157600080fd5b600061320f84828501612f5d565b91505092915050565b60006020828403121561322a57600080fd5b600061323884828501612f9c565b91505092915050565b6000806040838503121561325457600080fd5b600061326285828601612f9c565b925050602061327385828601612f9c565b9150509250929050565b61328681613c27565b82525050565b61329581613c39565b82525050565b60006132a682613acf565b6132b08185613ae5565b93506132c0818560208601613caa565b6132c981613e76565b840191505092915050565b60006132df82613ada565b6132e98185613af6565b93506132f9818560208601613caa565b61330281613e76565b840191505092915050565b600061331882613ada565b6133228185613b07565b9350613332818560208601613caa565b80840191505092915050565b6000815461334b81613cdd565b6133558186613b07565b945060018216600081146133705760018114613381576133b4565b60ff198316865281860193506133b4565b61338a85613aba565b60005b838110156133ac5781548189015260018201915060208101905061338d565b838801955050505b50505092915050565b60006133ca603283613af6565b91506133d582613e87565b604082019050919050565b60006133ed602683613af6565b91506133f882613ed6565b604082019050919050565b6000613410602583613af6565b915061341b82613f25565b604082019050919050565b6000613433601c83613af6565b915061343e82613f74565b602082019050919050565b6000613456602483613af6565b915061346182613f9d565b604082019050919050565b6000613479601983613af6565b915061348482613fec565b602082019050919050565b600061349c602c83613af6565b91506134a782614015565b604082019050919050565b60006134bf603883613af6565b91506134ca82614064565b604082019050919050565b60006134e2602a83613af6565b91506134ed826140b3565b604082019050919050565b6000613505602983613af6565b915061351082614102565b604082019050919050565b6000613528602e83613af6565b915061353382614151565b604082019050919050565b600061354b602083613af6565b9150613556826141a0565b602082019050919050565b600061356e602c83613af6565b9150613579826141c9565b604082019050919050565b6000613591602083613af6565b915061359c82614218565b602082019050919050565b60006135b4602283613af6565b91506135bf82614241565b604082019050919050565b60006135d7602f83613af6565b91506135e282614290565b604082019050919050565b60006135fa602183613af6565b9150613605826142df565b604082019050919050565b600061361d602c83613af6565b91506136288261432e565b604082019050919050565b6000613640603183613af6565b915061364b8261437d565b604082019050919050565b6000613663602183613af6565b915061366e826143cc565b604082019050919050565b6000613686602983613af6565b91506136918261441b565b604082019050919050565b6136a581613c91565b82525050565b60006136b7828661330d565b91506136c3828561330d565b91506136cf828461333e565b9150819050949350505050565b60006020820190506136f1600083018461327d565b92915050565b600060808201905061370c600083018761327d565b613719602083018661327d565b613726604083018561369c565b8181036060830152613738818461329b565b905095945050505050565b6000604082019050613758600083018561327d565b613765602083018461369c565b9392505050565b6000602082019050613781600083018461328c565b92915050565b600060208201905081810360008301526137a181846132d4565b905092915050565b600060208201905081810360008301526137c2816133bd565b9050919050565b600060208201905081810360008301526137e2816133e0565b9050919050565b6000602082019050818103600083015261380281613403565b9050919050565b6000602082019050818103600083015261382281613426565b9050919050565b6000602082019050818103600083015261384281613449565b9050919050565b600060208201905081810360008301526138628161346c565b9050919050565b600060208201905081810360008301526138828161348f565b9050919050565b600060208201905081810360008301526138a2816134b2565b9050919050565b600060208201905081810360008301526138c2816134d5565b9050919050565b600060208201905081810360008301526138e2816134f8565b9050919050565b600060208201905081810360008301526139028161351b565b9050919050565b600060208201905081810360008301526139228161353e565b9050919050565b6000602082019050818103600083015261394281613561565b9050919050565b6000602082019050818103600083015261396281613584565b9050919050565b60006020820190508181036000830152613982816135a7565b9050919050565b600060208201905081810360008301526139a2816135ca565b9050919050565b600060208201905081810360008301526139c2816135ed565b9050919050565b600060208201905081810360008301526139e281613610565b9050919050565b60006020820190508181036000830152613a0281613633565b9050919050565b60006020820190508181036000830152613a2281613656565b9050919050565b60006020820190508181036000830152613a4281613679565b9050919050565b6000602082019050613a5e600083018461369c565b92915050565b6000613a6e613a7f565b9050613a7a8282613d0f565b919050565b6000604051905090565b600067ffffffffffffffff821115613aa457613aa3613e47565b5b613aad82613e76565b9050602081019050919050565b60008190508160005260206000209050919050565b600081519050919050565b600081519050919050565b600082825260208201905092915050565b600082825260208201905092915050565b600081905092915050565b6000613b1d82613c91565b9150613b2883613c91565b9250827fffffffffffffffffffffffffffffffffffffffffffffffffffffffffffffffff03821115613b5d57613b5c613dba565b5b828201905092915050565b6000613b7382613c91565b9150613b7e83613c91565b925082613b8e57613b8d613de9565b5b828204905092915050565b6000613ba482613c91565b9150613baf83613c91565b9250817fffffffffffffffffffffffffffffffffffffffffffffffffffffffffffffffff0483118215151615613be857613be7613dba565b5b828202905092915050565b6000613bfe82613c91565b9150613c0983613c91565b925082821015613c1c57613c1b613dba565b5b828203905092915050565b6000613c3282613c71565b9050919050565b60008115159050919050565b60007fffffffff0000000000000000000000000000000000000000000000000000000082169050919050565b600073ffffffffffffffffffffffffffffffffffffffff82169050919050565b6000819050919050565b82818337600083830152505050565b60005b83811015613cc8578082015181840152602081019050613cad565b83811115613cd7576000848401525b50505050565b60006002820490506001821680613cf557607f821691505b60208210811415613d0957613d08613e18565b5b50919050565b613d1882613e76565b810181811067ffffffffffffffff82111715613d3757613d36613e47565b5b80604052505050565b6000613d4b82613c91565b91507fffffffffffffffffffffffffffffffffffffffffffffffffffffffffffffffff821415613d7e57613d7d613dba565b5b600182019050919050565b6000613d9482613c91565b9150613d9f83613c91565b925082613daf57613dae613de9565b5b828206905092915050565b7f4e487b7100000000000000000000000000000000000000000000000000000000600052601160045260246000fd5b7f4e487b7100000000000000000000000000000000000000000000000000000000600052601260045260246000fd5b7f4e487b7100000000000000000000000000000000000000000000000000000000600052602260045260246000fd5b7f4e487b7100000000000000000000000000000000000000000000000000000000600052604160045260246000fd5b6000601f19601f8301169050919050565b7f4552433732313a207472616e7366657220746f206e6f6e20455243373231526560008201527f63656976657220696d706c656d656e7465720000000000000000000000000000602082015250565b7f4f776e61626c653a206e6577206f776e657220697320746865207a65726f206160008201527f6464726573730000000000000000000000000000000000000000000000000000602082015250565b7f4552433732313a207472616e736665722066726f6d20696e636f72726563742060008201527f6f776e6572000000000000000000000000000000000000000000000000000000602082015250565b7f4552433732313a20746f6b656e20616c7265616479206d696e74656400000000600082015250565b7f4552433732313a207472616e7366657220746f20746865207a65726f2061646460008201527f7265737300000000000000000000000000000000000000000000000000000000602082015250565b7f4552433732313a20617070726f766520746f2063616c6c657200000000000000600082015250565b7f4552433732313a206f70657261746f7220717565727920666f72206e6f6e657860008201527f697374656e7420746f6b656e0000000000000000000000000000000000000000602082015250565b7f4552433732313a20617070726f76652063616c6c6572206973206e6f74206f7760008201527f6e6572206e6f7220617070726f76656420666f7220616c6c0000000000000000602082015250565b7f4552433732313a2062616c616e636520717565727920666f7220746865207a6560008201527f726f206164647265737300000000000000000000000000000000000000000000602082015250565b7f4552433732313a206f776e657220717565727920666f72206e6f6e657869737460008201527f656e7420746f6b656e0000000000000000000000000000000000000000000000602082015250565b7f45524337323155524953746f726167653a2055524920736574206f66206e6f6e60008201527f6578697374656e7420746f6b656e000000000000000000000000000000000000602082015250565b7f4552433732313a206d696e7420746f20746865207a65726f2061646472657373600082015250565b7f4552433732313a20617070726f76656420717565727920666f72206e6f6e657860008201527f697374656e7420746f6b656e0000000000000000000000000000000000000000602082015250565b7f4f776e61626c653a2063616c6c6572206973206e6f7420746865206f776e6572600082015250565b7f456163682061646472657373206d6179206f6e6c79206d696e742078204e465460008201527f7321000000000000000000000000000000000000000000000000000000000000602082015250565b7f4552433732314d657461646174613a2055524920717565727920666f72206e6f60008201527f6e6578697374656e7420746f6b656e0000000000000000000000000000000000602082015250565b7f4552433732313a20617070726f76616c20746f2063757272656e74206f776e6560008201527f7200000000000000000000000000000000000000000000000000000000000000602082015250565b7f526f79616c746965733a206e657720726563697069656e74206973207468652060008201527f7a65726f20616464726573730000000000000000000000000000000000000000602082015250565b7f4552433732313a207472616e736665722063616c6c6572206973206e6f74206f60008201527f776e6572206e6f7220617070726f766564000000000000000000000000000000602082015250565b7f4e6f7420656e6f756768204554482073656e743b20636865636b20707269636560008201527f2100000000000000000000000000000000000000000000000000000000000000602082015250565b7f4d657461646174613a2055524920717565727920666f72206e6f6e657869737460008201527f656e7420746f6b656e0000000000000000000000000000000000000000000000602082015250565b61447381613c27565b811461447e57600080fd5b50565b61448a81613c39565b811461449557600080fd5b50565b6144a181613c45565b81146144ac57600080fd5b50565b6144b881613c91565b81146144c357600080fd5b5056fe697066733a2f2f516d4e6d424856484d4874386b765432567450446a5a36736a476a796a4a354c4273723144686e4c767a545a73732f697066733a2f2f516d54413431637867693632696b3836673365316d387362677650757337534c5a776f4e6a4672434455477678712fa264697066735822122078aef0395bcaab713558ed1e283169236487fe0585a681e9428890c15a6c554464736f6c63430008040033697066733a2f2f516d5466713552577058336b3664716275326e474e633533335956314e6872423933696d52683157446e55685742",
  "linkReferences": {},
  "deployedLinkReferences": {}
}