{
  "_format": "hh-sol-artifact-1",
  "contractName": "NFT",
  "sourceName": "src/backend/contracts/NFT.sol",
  "abi": [
    {
      "inputs": [
        {
          "internalType": "address",
          "name": "_teamWallet",
          "type": "address"
        }
      ],
      "stateMutability": "nonpayable",
      "type": "constructor"
    },
    {
      "inputs": [],
      "name": "ApprovalCallerNotOwnerNorApproved",
      "type": "error"
    },
    {
      "inputs": [],
      "name": "ApprovalQueryForNonexistentToken",
      "type": "error"
    },
    {
      "inputs": [],
      "name": "BalanceQueryForZeroAddress",
      "type": "error"
    },
    {
      "inputs": [],
      "name": "MintERC2309QuantityExceedsLimit",
      "type": "error"
    },
    {
      "inputs": [],
      "name": "MintToZeroAddress",
      "type": "error"
    },
    {
      "inputs": [],
      "name": "MintZeroQuantity",
      "type": "error"
    },
    {
      "inputs": [],
      "name": "OwnerQueryForNonexistentToken",
      "type": "error"
    },
    {
      "inputs": [],
      "name": "OwnershipNotInitializedForExtraData",
      "type": "error"
    },
    {
      "inputs": [],
      "name": "TransferCallerNotOwnerNorApproved",
      "type": "error"
    },
    {
      "inputs": [],
      "name": "TransferFromIncorrectOwner",
      "type": "error"
    },
    {
      "inputs": [],
      "name": "TransferToNonERC721ReceiverImplementer",
      "type": "error"
    },
    {
      "inputs": [],
      "name": "TransferToZeroAddress",
      "type": "error"
    },
    {
      "inputs": [],
      "name": "URIQueryForNonexistentToken",
      "type": "error"
    },
    {
      "anonymous": false,
      "inputs": [
        {
          "indexed": true,
          "internalType": "address",
          "name": "owner",
          "type": "address"
        },
        {
          "indexed": true,
          "internalType": "address",
          "name": "approved",
          "type": "address"
        },
        {
          "indexed": true,
          "internalType": "uint256",
          "name": "tokenId",
          "type": "uint256"
        }
      ],
      "name": "Approval",
      "type": "event"
    },
    {
      "anonymous": false,
      "inputs": [
        {
          "indexed": true,
          "internalType": "address",
          "name": "owner",
          "type": "address"
        },
        {
          "indexed": true,
          "internalType": "address",
          "name": "operator",
          "type": "address"
        },
        {
          "indexed": false,
          "internalType": "bool",
          "name": "approved",
          "type": "bool"
        }
      ],
      "name": "ApprovalForAll",
      "type": "event"
    },
    {
      "anonymous": false,
      "inputs": [
        {
          "indexed": true,
          "internalType": "uint256",
          "name": "fromTokenId",
          "type": "uint256"
        },
        {
          "indexed": false,
          "internalType": "uint256",
          "name": "toTokenId",
          "type": "uint256"
        },
        {
          "indexed": true,
          "internalType": "address",
          "name": "from",
          "type": "address"
        },
        {
          "indexed": true,
          "internalType": "address",
          "name": "to",
          "type": "address"
        }
      ],
      "name": "ConsecutiveTransfer",
      "type": "event"
    },
    {
      "anonymous": false,
      "inputs": [
        {
          "indexed": false,
          "internalType": "address",
          "name": "user",
          "type": "address"
        }
      ],
      "name": "MintSuccessful",
      "type": "event"
    },
    {
      "anonymous": false,
      "inputs": [
        {
          "indexed": true,
          "internalType": "address",
          "name": "previousOwner",
          "type": "address"
        },
        {
          "indexed": true,
          "internalType": "address",
          "name": "newOwner",
          "type": "address"
        }
      ],
      "name": "OwnershipTransferred",
      "type": "event"
    },
    {
      "anonymous": false,
      "inputs": [
        {
          "indexed": true,
          "internalType": "address",
          "name": "from",
          "type": "address"
        },
        {
          "indexed": true,
          "internalType": "address",
          "name": "to",
          "type": "address"
        },
        {
          "indexed": true,
          "internalType": "uint256",
          "name": "tokenId",
          "type": "uint256"
        }
      ],
      "name": "Transfer",
      "type": "event"
    },
    {
      "inputs": [],
      "name": "amountMintPerAccount",
      "outputs": [
        {
          "internalType": "uint256",
          "name": "",
          "type": "uint256"
        }
      ],
      "stateMutability": "view",
      "type": "function"
    },
    {
      "inputs": [
        {
          "internalType": "address",
          "name": "to",
          "type": "address"
        },
        {
          "internalType": "uint256",
          "name": "tokenId",
          "type": "uint256"
        }
      ],
      "name": "approve",
      "outputs": [],
      "stateMutability": "payable",
      "type": "function"
    },
    {
      "inputs": [
        {
          "internalType": "address",
          "name": "owner",
          "type": "address"
        }
      ],
      "name": "balanceOf",
      "outputs": [
        {
          "internalType": "uint256",
          "name": "",
          "type": "uint256"
        }
      ],
      "stateMutability": "view",
      "type": "function"
    },
    {
      "inputs": [],
      "name": "baseTokenURI",
      "outputs": [
        {
          "internalType": "string",
          "name": "",
          "type": "string"
        }
      ],
      "stateMutability": "pure",
      "type": "function"
    },
    {
      "inputs": [],
      "name": "contractURI",
      "outputs": [
        {
          "internalType": "string",
          "name": "",
          "type": "string"
        }
      ],
      "stateMutability": "pure",
      "type": "function"
    },
    {
      "inputs": [
        {
          "internalType": "uint256",
          "name": "tokenId",
          "type": "uint256"
        }
      ],
      "name": "getApproved",
      "outputs": [
        {
          "internalType": "address",
          "name": "",
          "type": "address"
        }
      ],
      "stateMutability": "view",
      "type": "function"
    },
    {
      "inputs": [],
      "name": "getPrice",
      "outputs": [
        {
          "internalType": "uint256",
          "name": "",
          "type": "uint256"
        }
      ],
      "stateMutability": "view",
      "type": "function"
    },
    {
      "inputs": [
        {
          "internalType": "address",
          "name": "owner",
          "type": "address"
        },
        {
          "internalType": "address",
          "name": "operator",
          "type": "address"
        }
      ],
      "name": "isApprovedForAll",
      "outputs": [
        {
          "internalType": "bool",
          "name": "",
          "type": "bool"
        }
      ],
      "stateMutability": "view",
      "type": "function"
    },
    {
      "inputs": [],
      "name": "max_supply",
      "outputs": [
        {
          "internalType": "uint256",
          "name": "",
          "type": "uint256"
        }
      ],
      "stateMutability": "view",
      "type": "function"
    },
    {
      "inputs": [
        {
          "internalType": "uint256",
          "name": "_quantity",
          "type": "uint256"
        }
      ],
      "name": "mint",
      "outputs": [],
      "stateMutability": "payable",
      "type": "function"
    },
    {
      "inputs": [],
      "name": "name",
      "outputs": [
        {
          "internalType": "string",
          "name": "",
          "type": "string"
        }
      ],
      "stateMutability": "view",
      "type": "function"
    },
    {
      "inputs": [],
      "name": "owner",
      "outputs": [
        {
          "internalType": "address",
          "name": "",
          "type": "address"
        }
      ],
      "stateMutability": "view",
      "type": "function"
    },
    {
      "inputs": [
        {
          "internalType": "uint256",
          "name": "tokenId",
          "type": "uint256"
        }
      ],
      "name": "ownerOf",
      "outputs": [
        {
          "internalType": "address",
          "name": "",
          "type": "address"
        }
      ],
      "stateMutability": "view",
      "type": "function"
    },
    {
      "inputs": [],
      "name": "price",
      "outputs": [
        {
          "internalType": "uint256",
          "name": "",
          "type": "uint256"
        }
      ],
      "stateMutability": "view",
      "type": "function"
    },
    {
      "inputs": [],
      "name": "renounceOwnership",
      "outputs": [],
      "stateMutability": "nonpayable",
      "type": "function"
    },
    {
      "inputs": [
        {
          "internalType": "address",
          "name": "from",
          "type": "address"
        },
        {
          "internalType": "address",
          "name": "to",
          "type": "address"
        },
        {
          "internalType": "uint256",
          "name": "tokenId",
          "type": "uint256"
        }
      ],
      "name": "safeTransferFrom",
      "outputs": [],
      "stateMutability": "payable",
      "type": "function"
    },
    {
      "inputs": [
        {
          "internalType": "address",
          "name": "from",
          "type": "address"
        },
        {
          "internalType": "address",
          "name": "to",
          "type": "address"
        },
        {
          "internalType": "uint256",
          "name": "tokenId",
          "type": "uint256"
        },
        {
          "internalType": "bytes",
          "name": "_data",
          "type": "bytes"
        }
      ],
      "name": "safeTransferFrom",
      "outputs": [],
      "stateMutability": "payable",
      "type": "function"
    },
    {
      "inputs": [
        {
          "internalType": "uint256",
          "name": "_amountMintPerAccount",
          "type": "uint256"
        }
      ],
      "name": "setAmountMintPerAccount",
      "outputs": [],
      "stateMutability": "nonpayable",
      "type": "function"
    },
    {
      "inputs": [
        {
          "internalType": "address",
          "name": "operator",
          "type": "address"
        },
        {
          "internalType": "bool",
          "name": "approved",
          "type": "bool"
        }
      ],
      "name": "setApprovalForAll",
      "outputs": [],
      "stateMutability": "nonpayable",
      "type": "function"
    },
    {
      "inputs": [
        {
          "internalType": "uint256",
          "name": "_price",
          "type": "uint256"
        }
      ],
      "name": "setPrice",
      "outputs": [],
      "stateMutability": "nonpayable",
      "type": "function"
    },
    {
      "inputs": [
        {
          "internalType": "bytes4",
          "name": "interfaceId",
          "type": "bytes4"
        }
      ],
      "name": "supportsInterface",
      "outputs": [
        {
          "internalType": "bool",
          "name": "",
          "type": "bool"
        }
      ],
      "stateMutability": "view",
      "type": "function"
    },
    {
      "inputs": [],
      "name": "symbol",
      "outputs": [
        {
          "internalType": "string",
          "name": "",
          "type": "string"
        }
      ],
      "stateMutability": "view",
      "type": "function"
    },
    {
      "inputs": [
        {
          "internalType": "uint256",
          "name": "_tokenId",
          "type": "uint256"
        }
      ],
      "name": "tokenURI",
      "outputs": [
        {
          "internalType": "string",
          "name": "",
          "type": "string"
        }
      ],
      "stateMutability": "view",
      "type": "function"
    },
    {
      "inputs": [],
      "name": "totalSupply",
      "outputs": [
        {
          "internalType": "uint256",
          "name": "",
          "type": "uint256"
        }
      ],
      "stateMutability": "view",
      "type": "function"
    },
    {
      "inputs": [
        {
          "internalType": "address",
          "name": "from",
          "type": "address"
        },
        {
          "internalType": "address",
          "name": "to",
          "type": "address"
        },
        {
          "internalType": "uint256",
          "name": "tokenId",
          "type": "uint256"
        }
      ],
      "name": "transferFrom",
      "outputs": [],
      "stateMutability": "payable",
      "type": "function"
    },
    {
      "inputs": [
        {
          "internalType": "address",
          "name": "newOwner",
          "type": "address"
        }
      ],
      "name": "transferOwnership",
      "outputs": [],
      "stateMutability": "nonpayable",
      "type": "function"
    },
    {
      "inputs": [],
      "name": "uriPrefix",
      "outputs": [
        {
          "internalType": "string",
          "name": "",
          "type": "string"
        }
      ],
      "stateMutability": "view",
      "type": "function"
    },
    {
      "inputs": [],
      "name": "uriSuffix",
      "outputs": [
        {
          "internalType": "string",
          "name": "",
          "type": "string"
        }
      ],
      "stateMutability": "view",
      "type": "function"
    }
  ],
  "bytecode": "0x608060405260405180602001604052806000815250600990805190602001906200002b929190620003c4565b506040518060400160405280600581526020017f2e6a736f6e000000000000000000000000000000000000000000000000000000815250600a908051906020019062000079929190620003c4565b50612710600b55600a600c5566b1a2bc2ec50000600d553480156200009d57600080fd5b5060405162003194380380620031948339818101604052810190620000c391906200048b565b6040518060400160405280600d81526020017f465245414b5920524142424954000000000000000000000000000000000000008152506040518060400160405280600281526020017f4652000000000000000000000000000000000000000000000000000000000000815250816002908051906020019062000147929190620003c4565b50806003908051906020019062000160929190620003c4565b5062000171620001b160201b60201c565b6000819055505050620001996200018d620001b660201b60201c565b620001be60201b60201c565b620001aa816200028460201b60201c565b5062000685565b600090565b600033905090565b6000600860009054906101000a900473ffffffffffffffffffffffffffffffffffffffff16905081600860006101000a81548173ffffffffffffffffffffffffffffffffffffffff021916908373ffffffffffffffffffffffffffffffffffffffff1602179055508173ffffffffffffffffffffffffffffffffffffffff168173ffffffffffffffffffffffffffffffffffffffff167f8be0079c531659141344cd1fd0a4f28419497f9722a3daafe3b4186f6b6457e060405160405180910390a35050565b62000294620001b660201b60201c565b73ffffffffffffffffffffffffffffffffffffffff16620002ba6200039a60201b60201c565b73ffffffffffffffffffffffffffffffffffffffff161462000313576040517f08c379a00000000000000000000000000000000000000000000000000000000081526004016200030a9062000527565b60405180910390fd5b600073ffffffffffffffffffffffffffffffffffffffff168173ffffffffffffffffffffffffffffffffffffffff16141562000386576040517f08c379a00000000000000000000000000000000000000000000000000000000081526004016200037d9062000505565b60405180910390fd5b6200039781620001be60201b60201c565b50565b6000600860009054906101000a900473ffffffffffffffffffffffffffffffffffffffff16905090565b828054620003d2906200058e565b90600052602060002090601f016020900481019282620003f6576000855562000442565b82601f106200041157805160ff191683800117855562000442565b8280016001018555821562000442579182015b828111156200044157825182559160200191906001019062000424565b5b50905062000451919062000455565b5090565b5b808211156200047057600081600090555060010162000456565b5090565b60008151905062000485816200066b565b92915050565b6000602082840312156200049e57600080fd5b6000620004ae8482850162000474565b91505092915050565b6000620004c660268362000549565b9150620004d382620005f3565b604082019050919050565b6000620004ed60208362000549565b9150620004fa8262000642565b602082019050919050565b600060208201905081810360008301526200052081620004b7565b9050919050565b600060208201905081810360008301526200054281620004de565b9050919050565b600082825260208201905092915050565b600062000567826200056e565b9050919050565b600073ffffffffffffffffffffffffffffffffffffffff82169050919050565b60006002820490506001821680620005a757607f821691505b60208210811415620005be57620005bd620005c4565b5b50919050565b7f4e487b7100000000000000000000000000000000000000000000000000000000600052602260045260246000fd5b7f4f776e61626c653a206e6577206f776e657220697320746865207a65726f206160008201527f6464726573730000000000000000000000000000000000000000000000000000602082015250565b7f4f776e61626c653a2063616c6c6572206973206e6f7420746865206f776e6572600082015250565b62000676816200055a565b81146200068257600080fd5b50565b612aff80620006956000396000f3fe6080604052600436106101b75760003560e01c80638da5cb5b116100ec578063a827b5ff1161008a578063d547cfb711610064578063d547cfb7146105b9578063e8a3d485146105e4578063e985e9c51461060f578063f2fde38b1461064c576101b7565b8063a827b5ff14610535578063b88d4fde14610560578063c87b56dd1461057c576101b7565b806398d5fdca116100c657806398d5fdca1461049a578063a035b1fe146104c5578063a0712d68146104f0578063a22cb4651461050c576101b7565b80638da5cb5b1461041b57806391b7f5ed1461044657806395d89b411461046f576101b7565b806342842e0e116101595780636352211e116101335780636352211e1461035f57806370a082311461039c578063715018a6146103d95780638a333b50146103f0576101b7565b806342842e0e146102ed5780635503a0e81461030957806362b99ad414610334576101b7565b8063095ea7b311610195578063095ea7b314610261578063112966601461027d57806318160ddd146102a657806323b872dd146102d1576101b7565b806301ffc9a7146101bc57806306fdde03146101f9578063081812fc14610224575b600080fd5b3480156101c857600080fd5b506101e360048036038101906101de9190612070565b610675565b6040516101f09190612381565b60405180910390f35b34801561020557600080fd5b5061020e610707565b60405161021b919061239c565b60405180910390f35b34801561023057600080fd5b5061024b600480360381019061024691906120c2565b610799565b604051610258919061231a565b60405180910390f35b61027b60048036038101906102769190612034565b610818565b005b34801561028957600080fd5b506102a4600480360381019061029f91906120c2565b61095c565b005b3480156102b257600080fd5b506102bb6109e2565b6040516102c8919061245e565b60405180910390f35b6102eb60048036038101906102e69190611f2e565b6109f9565b005b61030760048036038101906103029190611f2e565b610d1e565b005b34801561031557600080fd5b5061031e610d3e565b60405161032b919061239c565b60405180910390f35b34801561034057600080fd5b50610349610dcc565b604051610356919061239c565b60405180910390f35b34801561036b57600080fd5b50610386600480360381019061038191906120c2565b610e5a565b604051610393919061231a565b60405180910390f35b3480156103a857600080fd5b506103c360048036038101906103be9190611ec9565b610e6c565b6040516103d0919061245e565b60405180910390f35b3480156103e557600080fd5b506103ee610f25565b005b3480156103fc57600080fd5b50610405610fad565b604051610412919061245e565b60405180910390f35b34801561042757600080fd5b50610430610fb3565b60405161043d919061231a565b60405180910390f35b34801561045257600080fd5b5061046d600480360381019061046891906120c2565b610fdd565b005b34801561047b57600080fd5b50610484611063565b604051610491919061239c565b60405180910390f35b3480156104a657600080fd5b506104af6110f5565b6040516104bc919061245e565b60405180910390f35b3480156104d157600080fd5b506104da611143565b6040516104e7919061245e565b60405180910390f35b61050a600480360381019061050591906120c2565b611149565b005b34801561051857600080fd5b50610533600480360381019061052e9190611ff8565b61123a565b005b34801561054157600080fd5b5061054a611345565b604051610557919061245e565b60405180910390f35b61057a60048036038101906105759190611f7d565b61134b565b005b34801561058857600080fd5b506105a3600480360381019061059e91906120c2565b6113be565b6040516105b0919061239c565b60405180910390f35b3480156105c557600080fd5b506105ce611468565b6040516105db919061239c565b60405180910390f35b3480156105f057600080fd5b506105f9611477565b604051610606919061239c565b60405180910390f35b34801561061b57600080fd5b5061063660048036038101906106319190611ef2565b611497565b6040516106439190612381565b60405180910390f35b34801561065857600080fd5b50610673600480360381019061066e9190611ec9565b61152b565b005b60006301ffc9a760e01b827bffffffffffffffffffffffffffffffffffffffffffffffffffffffff191614806106d057506380ac58cd60e01b827bffffffffffffffffffffffffffffffffffffffffffffffffffffffff1916145b806107005750635b5e139f60e01b827bffffffffffffffffffffffffffffffffffffffffffffffffffffffff1916145b9050919050565b606060028054610716906126f2565b80601f0160208091040260200160405190810160405280929190818152602001828054610742906126f2565b801561078f5780601f106107645761010080835404028352916020019161078f565b820191906000526020600020905b81548152906001019060200180831161077257829003601f168201915b5050505050905090565b60006107a482611623565b6107da576040517fcf4700e400000000000000000000000000000000000000000000000000000000815260040160405180910390fd5b6006600083815260200190815260200160002060000160009054906101000a900473ffffffffffffffffffffffffffffffffffffffff169050919050565b600061082382610e5a565b90508073ffffffffffffffffffffffffffffffffffffffff16610844611682565b73ffffffffffffffffffffffffffffffffffffffff16146108a7576108708161086b611682565b611497565b6108a6576040517fcfb3b94200000000000000000000000000000000000000000000000000000000815260040160405180910390fd5b5b826006600084815260200190815260200160002060000160006101000a81548173ffffffffffffffffffffffffffffffffffffffff021916908373ffffffffffffffffffffffffffffffffffffffff160217905550818373ffffffffffffffffffffffffffffffffffffffff168273ffffffffffffffffffffffffffffffffffffffff167f8c5be1e5ebec7d5bd14f71427d1e84f3dd0314c0f7b2291e5b200ac8c7c3b92560405160405180910390a4505050565b61096461168a565b73ffffffffffffffffffffffffffffffffffffffff16610982610fb3565b73ffffffffffffffffffffffffffffffffffffffff16146109d8576040517f08c379a00000000000000000000000000000000000000000000000000000000081526004016109cf906123de565b60405180910390fd5b80600c8190555050565b60006109ec611692565b6001546000540303905090565b6000610a0482611697565b90508373ffffffffffffffffffffffffffffffffffffffff168173ffffffffffffffffffffffffffffffffffffffff1614610a6b576040517fa114810000000000000000000000000000000000000000000000000000000000815260040160405180910390fd5b600080610a7784611765565b91509150610a8d8187610a88611682565b61178c565b610ad957610aa286610a9d611682565b611497565b610ad8576040517f59c896be00000000000000000000000000000000000000000000000000000000815260040160405180910390fd5b5b600073ffffffffffffffffffffffffffffffffffffffff168573ffffffffffffffffffffffffffffffffffffffff161415610b40576040517fea553b3400000000000000000000000000000000000000000000000000000000815260040160405180910390fd5b610b4d86868660016117d0565b8015610b5857600082555b600560008773ffffffffffffffffffffffffffffffffffffffff1673ffffffffffffffffffffffffffffffffffffffff168152602001908152602001600020600081546001900391905081905550600560008673ffffffffffffffffffffffffffffffffffffffff1673ffffffffffffffffffffffffffffffffffffffff1681526020019081526020016000206000815460010191905081905550610c2685610c028888876117d6565b7c0200000000000000000000000000000000000000000000000000000000176117fe565b600460008681526020019081526020016000208190555060007c020000000000000000000000000000000000000000000000000000000084161415610cae576000600185019050600060046000838152602001908152602001600020541415610cac576000548114610cab578360046000838152602001908152602001600020819055505b5b505b838573ffffffffffffffffffffffffffffffffffffffff168773ffffffffffffffffffffffffffffffffffffffff167fddf252ad1be2c89b69c2b068fc378daa952ba7f163c4a11628f55a4df523b3ef60405160405180910390a4610d168686866001611829565b505050505050565b610d398383836040518060200160405280600081525061134b565b505050565b600a8054610d4b906126f2565b80601f0160208091040260200160405190810160405280929190818152602001828054610d77906126f2565b8015610dc45780601f10610d9957610100808354040283529160200191610dc4565b820191906000526020600020905b815481529060010190602001808311610da757829003601f168201915b505050505081565b60098054610dd9906126f2565b80601f0160208091040260200160405190810160405280929190818152602001828054610e05906126f2565b8015610e525780601f10610e2757610100808354040283529160200191610e52565b820191906000526020600020905b815481529060010190602001808311610e3557829003601f168201915b505050505081565b6000610e6582611697565b9050919050565b60008073ffffffffffffffffffffffffffffffffffffffff168273ffffffffffffffffffffffffffffffffffffffff161415610ed4576040517f8f4eb60400000000000000000000000000000000000000000000000000000000815260040160405180910390fd5b67ffffffffffffffff600560008473ffffffffffffffffffffffffffffffffffffffff1673ffffffffffffffffffffffffffffffffffffffff16815260200190815260200160002054169050919050565b610f2d61168a565b73ffffffffffffffffffffffffffffffffffffffff16610f4b610fb3565b73ffffffffffffffffffffffffffffffffffffffff1614610fa1576040517f08c379a0000000000000000000000000000000000000000000000000000000008152600401610f98906123de565b60405180910390fd5b610fab600061182f565b565b600b5481565b6000600860009054906101000a900473ffffffffffffffffffffffffffffffffffffffff16905090565b610fe561168a565b73ffffffffffffffffffffffffffffffffffffffff16611003610fb3565b73ffffffffffffffffffffffffffffffffffffffff1614611059576040517f08c379a0000000000000000000000000000000000000000000000000000000008152600401611050906123de565b60405180910390fd5b80600d8190555050565b606060038054611072906126f2565b80601f016020809104026020016040519081016040528092919081815260200182805461109e906126f2565b80156110eb5780601f106110c0576101008083540402835291602001916110eb565b820191906000526020600020905b8154815290600101906020018083116110ce57829003601f168201915b5050505050905090565b60006110ff610fb3565b73ffffffffffffffffffffffffffffffffffffffff163373ffffffffffffffffffffffffffffffffffffffff161461113b57600d549050611140565b600090505b90565b600d5481565b806111526110f5565b61115c91906125ae565b34101561119e576040517f08c379a00000000000000000000000000000000000000000000000000000000081526004016111959061243e565b60405180910390fd5b600c54816111ab33610e6c565b6111b59190612527565b11156111f6576040517f08c379a00000000000000000000000000000000000000000000000000000000081526004016111ed906123fe565b60405180910390fd5b61120033826118f5565b7ff5535ccd9f40eb4bc73fac8710dbb2effbf3329da83f62b35d9aa88161bb85ca3360405161122f919061231a565b60405180910390a150565b8060076000611247611682565b73ffffffffffffffffffffffffffffffffffffffff1673ffffffffffffffffffffffffffffffffffffffff16815260200190815260200160002060008473ffffffffffffffffffffffffffffffffffffffff1673ffffffffffffffffffffffffffffffffffffffff16815260200190815260200160002060006101000a81548160ff0219169083151502179055508173ffffffffffffffffffffffffffffffffffffffff166112f4611682565b73ffffffffffffffffffffffffffffffffffffffff167f17307eab39ab6107e8899845ad3d59bd9653f200f220920489ca2b5937696c31836040516113399190612381565b60405180910390a35050565b600c5481565b6113568484846109f9565b60008373ffffffffffffffffffffffffffffffffffffffff163b146113b85761138184848484611ab2565b6113b7576040517fd1a57ed600000000000000000000000000000000000000000000000000000000815260040160405180910390fd5b5b50505050565b60606113c982611623565b611408576040517f08c379a00000000000000000000000000000000000000000000000000000000081526004016113ff9061241e565b60405180910390fd5b6000611412611c12565b905060008151116114325760405180602001604052806000815250611460565b8061143c84611c32565b600a604051602001611450939291906122e9565b6040516020818303038152906040525b915050919050565b6060611472611c12565b905090565b6060604051806060016040528060368152602001612a9460369139905090565b6000600760008473ffffffffffffffffffffffffffffffffffffffff1673ffffffffffffffffffffffffffffffffffffffff16815260200190815260200160002060008373ffffffffffffffffffffffffffffffffffffffff1673ffffffffffffffffffffffffffffffffffffffff16815260200190815260200160002060009054906101000a900460ff16905092915050565b61153361168a565b73ffffffffffffffffffffffffffffffffffffffff16611551610fb3565b73ffffffffffffffffffffffffffffffffffffffff16146115a7576040517f08c379a000000000000000000000000000000000000000000000000000000000815260040161159e906123de565b60405180910390fd5b600073ffffffffffffffffffffffffffffffffffffffff168173ffffffffffffffffffffffffffffffffffffffff161415611617576040517f08c379a000000000000000000000000000000000000000000000000000000000815260040161160e906123be565b60405180910390fd5b6116208161182f565b50565b60008161162e611692565b1115801561163d575060005482105b801561167b575060007c0100000000000000000000000000000000000000000000000000000000600460008581526020019081526020016000205416145b9050919050565b600033905090565b600033905090565b600090565b600080829050806116a6611692565b1161172e5760005481101561172d5760006004600083815260200190815260200160002054905060007c01000000000000000000000000000000000000000000000000000000008216141561172b575b60008114156117215760046000836001900393508381526020019081526020016000205490506116f6565b8092505050611760565b505b5b6040517fdf2d9b4200000000000000000000000000000000000000000000000000000000815260040160405180910390fd5b919050565b60008060006006600085815260200190815260200160002090508092508254915050915091565b600073ffffffffffffffffffffffffffffffffffffffff8316925073ffffffffffffffffffffffffffffffffffffffff821691508382148383141790509392505050565b50505050565b60008060e883901c905060e86117ed868684611ddf565b62ffffff16901b9150509392505050565b600073ffffffffffffffffffffffffffffffffffffffff83169250814260a01b178317905092915050565b50505050565b6000600860009054906101000a900473ffffffffffffffffffffffffffffffffffffffff16905081600860006101000a81548173ffffffffffffffffffffffffffffffffffffffff021916908373ffffffffffffffffffffffffffffffffffffffff1602179055508173ffffffffffffffffffffffffffffffffffffffff168173ffffffffffffffffffffffffffffffffffffffff167f8be0079c531659141344cd1fd0a4f28419497f9722a3daafe3b4186f6b6457e060405160405180910390a35050565b6000805490506000821415611936576040517fb562e8dd00000000000000000000000000000000000000000000000000000000815260040160405180910390fd5b61194360008483856117d0565b600160406001901b178202600560008573ffffffffffffffffffffffffffffffffffffffff1673ffffffffffffffffffffffffffffffffffffffff168152602001908152602001600020600082825401925050819055506119ba836119ab60008660006117d6565b6119b485611de8565b176117fe565b6004600083815260200190815260200160002081905550600080838301905073ffffffffffffffffffffffffffffffffffffffff85169150828260007fddf252ad1be2c89b69c2b068fc378daa952ba7f163c4a11628f55a4df523b3ef600080a4600183015b818114611a5b57808360007fddf252ad1be2c89b69c2b068fc378daa952ba7f163c4a11628f55a4df523b3ef600080a4600181019050611a20565b506000821415611a97576040517f2e07630000000000000000000000000000000000000000000000000000000000815260040160405180910390fd5b806000819055505050611aad6000848385611829565b505050565b60008373ffffffffffffffffffffffffffffffffffffffff1663150b7a02611ad8611682565b8786866040518563ffffffff1660e01b8152600401611afa9493929190612335565b602060405180830381600087803b158015611b1457600080fd5b505af1925050508015611b4557506040513d601f19601f82011682018060405250810190611b429190612099565b60015b611bbf573d8060008114611b75576040519150601f19603f3d011682016040523d82523d6000602084013e611b7a565b606091505b50600081511415611bb7576040517fd1a57ed600000000000000000000000000000000000000000000000000000000815260040160405180910390fd5b805181602001fd5b63150b7a0260e01b7bffffffffffffffffffffffffffffffffffffffffffffffffffffffff1916817bffffffffffffffffffffffffffffffffffffffffffffffffffffffff191614915050949350505050565b6060604051806060016040528060368152602001612a5e60369139905090565b60606000821415611c7a576040518060400160405280600181526020017f30000000000000000000000000000000000000000000000000000000000000008152509050611dda565b600082905060005b60008214611cac578080611c9590612755565b915050600a82611ca5919061257d565b9150611c82565b60008167ffffffffffffffff811115611cee577f4e487b7100000000000000000000000000000000000000000000000000000000600052604160045260246000fd5b6040519080825280601f01601f191660200182016040528015611d205781602001600182028036833780820191505090505b5090505b60008514611dd357600182611d399190612608565b9150600a85611d48919061279e565b6030611d549190612527565b60f81b818381518110611d90577f4e487b7100000000000000000000000000000000000000000000000000000000600052603260045260246000fd5b60200101907effffffffffffffffffffffffffffffffffffffffffffffffffffffffffffff1916908160001a905350600a85611dcc919061257d565b9450611d24565b8093505050505b919050565b60009392505050565b60006001821460e11b9050919050565b6000611e0b611e068461249e565b612479565b905082815260208101848484011115611e2357600080fd5b611e2e8482856126b0565b509392505050565b600081359050611e4581612a01565b92915050565b600081359050611e5a81612a18565b92915050565b600081359050611e6f81612a2f565b92915050565b600081519050611e8481612a2f565b92915050565b600082601f830112611e9b57600080fd5b8135611eab848260208601611df8565b91505092915050565b600081359050611ec381612a46565b92915050565b600060208284031215611edb57600080fd5b6000611ee984828501611e36565b91505092915050565b60008060408385031215611f0557600080fd5b6000611f1385828601611e36565b9250506020611f2485828601611e36565b9150509250929050565b600080600060608486031215611f4357600080fd5b6000611f5186828701611e36565b9350506020611f6286828701611e36565b9250506040611f7386828701611eb4565b9150509250925092565b60008060008060808587031215611f9357600080fd5b6000611fa187828801611e36565b9450506020611fb287828801611e36565b9350506040611fc387828801611eb4565b925050606085013567ffffffffffffffff811115611fe057600080fd5b611fec87828801611e8a565b91505092959194509250565b6000806040838503121561200b57600080fd5b600061201985828601611e36565b925050602061202a85828601611e4b565b9150509250929050565b6000806040838503121561204757600080fd5b600061205585828601611e36565b925050602061206685828601611eb4565b9150509250929050565b60006020828403121561208257600080fd5b600061209084828501611e60565b91505092915050565b6000602082840312156120ab57600080fd5b60006120b984828501611e75565b91505092915050565b6000602082840312156120d457600080fd5b60006120e284828501611eb4565b91505092915050565b6120f48161263c565b82525050565b6121038161264e565b82525050565b6000612114826124e4565b61211e81856124fa565b935061212e8185602086016126bf565b6121378161288b565b840191505092915050565b600061214d826124ef565b612157818561250b565b93506121678185602086016126bf565b6121708161288b565b840191505092915050565b6000612186826124ef565b612190818561251c565b93506121a08185602086016126bf565b80840191505092915050565b600081546121b9816126f2565b6121c3818661251c565b945060018216600081146121de57600181146121ef57612222565b60ff19831686528186019350612222565b6121f8856124cf565b60005b8381101561221a578154818901526001820191506020810190506121fb565b838801955050505b50505092915050565b600061223860268361250b565b91506122438261289c565b604082019050919050565b600061225b60208361250b565b9150612266826128eb565b602082019050919050565b600061227e60228361250b565b915061228982612914565b604082019050919050565b60006122a1602f8361250b565b91506122ac82612963565b604082019050919050565b60006122c460218361250b565b91506122cf826129b2565b604082019050919050565b6122e3816126a6565b82525050565b60006122f5828661217b565b9150612301828561217b565b915061230d82846121ac565b9150819050949350505050565b600060208201905061232f60008301846120eb565b92915050565b600060808201905061234a60008301876120eb565b61235760208301866120eb565b61236460408301856122da565b81810360608301526123768184612109565b905095945050505050565b600060208201905061239660008301846120fa565b92915050565b600060208201905081810360008301526123b68184612142565b905092915050565b600060208201905081810360008301526123d78161222b565b9050919050565b600060208201905081810360008301526123f78161224e565b9050919050565b6000602082019050818103600083015261241781612271565b9050919050565b6000602082019050818103600083015261243781612294565b9050919050565b60006020820190508181036000830152612457816122b7565b9050919050565b600060208201905061247360008301846122da565b92915050565b6000612483612494565b905061248f8282612724565b919050565b6000604051905090565b600067ffffffffffffffff8211156124b9576124b861285c565b5b6124c28261288b565b9050602081019050919050565b60008190508160005260206000209050919050565b600081519050919050565b600081519050919050565b600082825260208201905092915050565b600082825260208201905092915050565b600081905092915050565b6000612532826126a6565b915061253d836126a6565b9250827fffffffffffffffffffffffffffffffffffffffffffffffffffffffffffffffff03821115612572576125716127cf565b5b828201905092915050565b6000612588826126a6565b9150612593836126a6565b9250826125a3576125a26127fe565b5b828204905092915050565b60006125b9826126a6565b91506125c4836126a6565b9250817fffffffffffffffffffffffffffffffffffffffffffffffffffffffffffffffff04831182151516156125fd576125fc6127cf565b5b828202905092915050565b6000612613826126a6565b915061261e836126a6565b925082821015612631576126306127cf565b5b828203905092915050565b600061264782612686565b9050919050565b60008115159050919050565b60007fffffffff0000000000000000000000000000000000000000000000000000000082169050919050565b600073ffffffffffffffffffffffffffffffffffffffff82169050919050565b6000819050919050565b82818337600083830152505050565b60005b838110156126dd5780820151818401526020810190506126c2565b838111156126ec576000848401525b50505050565b6000600282049050600182168061270a57607f821691505b6020821081141561271e5761271d61282d565b5b50919050565b61272d8261288b565b810181811067ffffffffffffffff8211171561274c5761274b61285c565b5b80604052505050565b6000612760826126a6565b91507fffffffffffffffffffffffffffffffffffffffffffffffffffffffffffffffff821415612793576127926127cf565b5b600182019050919050565b60006127a9826126a6565b91506127b4836126a6565b9250826127c4576127c36127fe565b5b828206905092915050565b7f4e487b7100000000000000000000000000000000000000000000000000000000600052601160045260246000fd5b7f4e487b7100000000000000000000000000000000000000000000000000000000600052601260045260246000fd5b7f4e487b7100000000000000000000000000000000000000000000000000000000600052602260045260246000fd5b7f4e487b7100000000000000000000000000000000000000000000000000000000600052604160045260246000fd5b6000601f19601f8301169050919050565b7f4f776e61626c653a206e6577206f776e657220697320746865207a65726f206160008201527f6464726573730000000000000000000000000000000000000000000000000000602082015250565b7f4f776e61626c653a2063616c6c6572206973206e6f7420746865206f776e6572600082015250565b7f456163682061646472657373206d6179206f6e6c79206d696e742078204e465460008201527f7321000000000000000000000000000000000000000000000000000000000000602082015250565b7f4552433732314d657461646174613a2055524920717565727920666f72206e6f60008201527f6e6578697374656e7420746f6b656e0000000000000000000000000000000000602082015250565b7f4e6f7420656e6f756768204554482073656e743b20636865636b20707269636560008201527f2100000000000000000000000000000000000000000000000000000000000000602082015250565b612a0a8161263c565b8114612a1557600080fd5b50565b612a218161264e565b8114612a2c57600080fd5b50565b612a388161265a565b8114612a4357600080fd5b50565b612a4f816126a6565b8114612a5a57600080fd5b5056fe697066733a2f2f516d636d4e6b416647544c636e6e51683631444e4476785666684e646f3566357a4b31674658654576436e4531422f697066733a2f2f516d53457048757258546a346738444b4d594e686847716e4466393379474c706962635936324178677445444a6e2fa26469706673582212206ff84d13df09334f511d2abf48d8715baf38f1879c47500941049fc0fac883c764736f6c63430008040033",
  "linkReferences": {},
  "deployedLinkReferences": {}
}